{
	"contracts/Token.sol": {
		"MyToken": {
			"abi": [
				{
					"inputs": [
						{
							"internalType": "address",
							"name": "",
							"type": "address"
						}
					],
					"name": "balances",
					"outputs": [
						{
							"internalType": "uint256",
							"name": "",
							"type": "uint256"
						}
					],
					"stateMutability": "view",
					"type": "function"
				},
				{
					"inputs": [
						{
							"internalType": "uint256",
							"name": "_val",
							"type": "uint256"
						}
					],
					"name": "burn",
					"outputs": [
						{
							"internalType": "string",
							"name": "",
							"type": "string"
						}
					],
					"stateMutability": "nonpayable",
					"type": "function"
				},
				{
					"inputs": [],
					"name": "coin",
					"outputs": [
						{
							"internalType": "string",
							"name": "Name",
							"type": "string"
						},
						{
							"internalType": "string",
							"name": "Abbrv",
							"type": "string"
						},
						{
							"internalType": "uint256",
							"name": "TotalSupply",
							"type": "uint256"
						}
					],
					"stateMutability": "view",
					"type": "function"
				},
				{
					"inputs": [],
					"name": "init",
					"outputs": [],
					"stateMutability": "nonpayable",
					"type": "function"
				},
				{
					"inputs": [
						{
							"internalType": "address",
							"name": "",
							"type": "address"
						},
						{
							"internalType": "address",
							"name": "",
							"type": "address"
						}
					],
					"name": "isPresent",
					"outputs": [
						{
							"internalType": "bool",
							"name": "",
							"type": "bool"
						}
					],
					"stateMutability": "view",
					"type": "function"
				},
				{
					"inputs": [
						{
							"internalType": "uint256",
							"name": "_val",
							"type": "uint256"
						}
					],
					"name": "mint",
					"outputs": [],
					"stateMutability": "nonpayable",
					"type": "function"
				}
			],
			"devdoc": {
				"kind": "dev",
				"methods": {},
				"version": 1
			},
			"evm": {
				"assembly": "    /* \"contracts/Token.sol\":1015:2440  contract MyToken {... */\n  mstore(0x40, 0x80)\n  callvalue\n  dup1\n  iszero\n  tag_1\n  jumpi\n  0x00\n  dup1\n  revert\ntag_1:\n  pop\n  dataSize(sub_0)\n  dup1\n  dataOffset(sub_0)\n  0x00\n  codecopy\n  0x00\n  return\nstop\n\nsub_0: assembly {\n        /* \"contracts/Token.sol\":1015:2440  contract MyToken {... */\n      mstore(0x40, 0x80)\n      callvalue\n      dup1\n      iszero\n      tag_1\n      jumpi\n      0x00\n      dup1\n      revert\n    tag_1:\n      pop\n      jumpi(tag_2, lt(calldatasize, 0x04))\n      shr(0xe0, calldataload(0x00))\n      dup1\n      0x11df9995\n      eq\n      tag_3\n      jumpi\n      dup1\n      0x27e235e3\n      eq\n      tag_4\n      jumpi\n      dup1\n      0x42966c68\n      eq\n      tag_5\n      jumpi\n      dup1\n      0xa0712d68\n      eq\n      tag_6\n      jumpi\n      dup1\n      0xe1c7392a\n      eq\n      tag_7\n      jumpi\n      dup1\n      0xed94b1a2\n      eq\n      tag_8\n      jumpi\n    tag_2:\n      0x00\n      dup1\n      revert\n        /* \"contracts/Token.sol\":1171:1188  token public coin */\n    tag_3:\n      tag_9\n      tag_10\n      jump\t// in\n    tag_9:\n      mload(0x40)\n      tag_11\n      swap4\n      swap3\n      swap2\n      swap1\n      tag_12\n      jump\t// in\n    tag_11:\n      mload(0x40)\n      dup1\n      swap2\n      sub\n      swap1\n      return\n        /* \"contracts/Token.sol\":1231:1272  mapping(address=>uint256) public balances */\n    tag_4:\n      tag_13\n      0x04\n      dup1\n      calldatasize\n      sub\n      dup2\n      add\n      swap1\n      tag_14\n      swap2\n      swap1\n      tag_15\n      jump\t// in\n    tag_14:\n      tag_16\n      jump\t// in\n    tag_13:\n      mload(0x40)\n      tag_17\n      swap2\n      swap1\n      tag_18\n      jump\t// in\n    tag_17:\n      mload(0x40)\n      dup1\n      swap2\n      sub\n      swap1\n      return\n        /* \"contracts/Token.sol\":1708:2437  function burn (uint _val) external returns (string memory){... */\n    tag_5:\n      tag_19\n      0x04\n      dup1\n      calldatasize\n      sub\n      dup2\n      add\n      swap1\n      tag_20\n      swap2\n      swap1\n      tag_21\n      jump\t// in\n    tag_20:\n      tag_22\n      jump\t// in\n    tag_19:\n      mload(0x40)\n      tag_23\n      swap2\n      swap1\n      tag_24\n      jump\t// in\n    tag_23:\n      mload(0x40)\n      dup1\n      swap2\n      sub\n      swap1\n      return\n        /* \"contracts/Token.sol\":1484:1680  function mint(uint _val) external{... */\n    tag_6:\n      tag_25\n      0x04\n      dup1\n      calldatasize\n      sub\n      dup2\n      add\n      swap1\n      tag_26\n      swap2\n      swap1\n      tag_21\n      jump\t// in\n    tag_26:\n      tag_27\n      jump\t// in\n    tag_25:\n      stop\n        /* \"contracts/Token.sol\":1347:1456  function init() external{... */\n    tag_7:\n      tag_28\n      tag_29\n      jump\t// in\n    tag_28:\n      stop\n        /* \"contracts/Token.sol\":1279:1338  mapping(address => mapping(address=>bool)) public isPresent */\n    tag_8:\n      tag_30\n      0x04\n      dup1\n      calldatasize\n      sub\n      dup2\n      add\n      swap1\n      tag_31\n      swap2\n      swap1\n      tag_32\n      jump\t// in\n    tag_31:\n      tag_33\n      jump\t// in\n    tag_30:\n      mload(0x40)\n      tag_34\n      swap2\n      swap1\n      tag_35\n      jump\t// in\n    tag_34:\n      mload(0x40)\n      dup1\n      swap2\n      sub\n      swap1\n      return\n        /* \"contracts/Token.sol\":1171:1188  token public coin */\n    tag_10:\n      0x00\n      dup1\n      0x00\n      add\n      dup1\n      sload\n      tag_36\n      swap1\n      tag_37\n      jump\t// in\n    tag_36:\n      dup1\n      0x1f\n      add\n      0x20\n      dup1\n      swap2\n      div\n      mul\n      0x20\n      add\n      mload(0x40)\n      swap1\n      dup2\n      add\n      0x40\n      mstore\n      dup1\n      swap3\n      swap2\n      swap1\n      dup2\n      dup2\n      mstore\n      0x20\n      add\n      dup3\n      dup1\n      sload\n      tag_38\n      swap1\n      tag_37\n      jump\t// in\n    tag_38:\n      dup1\n      iszero\n      tag_39\n      jumpi\n      dup1\n      0x1f\n      lt\n      tag_40\n      jumpi\n      0x0100\n      dup1\n      dup4\n      sload\n      div\n      mul\n      dup4\n      mstore\n      swap2\n      0x20\n      add\n      swap2\n      jump(tag_39)\n    tag_40:\n      dup3\n      add\n      swap2\n      swap1\n      0x00\n      mstore\n      keccak256(0x00, 0x20)\n      swap1\n    tag_41:\n      dup2\n      sload\n      dup2\n      mstore\n      swap1\n      0x01\n      add\n      swap1\n      0x20\n      add\n      dup1\n      dup4\n      gt\n      tag_41\n      jumpi\n      dup3\n      swap1\n      sub\n      0x1f\n      and\n      dup3\n      add\n      swap2\n    tag_39:\n      pop\n      pop\n      pop\n      pop\n      pop\n      swap1\n      dup1\n      0x01\n      add\n      dup1\n      sload\n      tag_42\n      swap1\n      tag_37\n      jump\t// in\n    tag_42:\n      dup1\n      0x1f\n      add\n      0x20\n      dup1\n      swap2\n      div\n      mul\n      0x20\n      add\n      mload(0x40)\n      swap1\n      dup2\n      add\n      0x40\n      mstore\n      dup1\n      swap3\n      swap2\n      swap1\n      dup2\n      dup2\n      mstore\n      0x20\n      add\n      dup3\n      dup1\n      sload\n      tag_43\n      swap1\n      tag_37\n      jump\t// in\n    tag_43:\n      dup1\n      iszero\n      tag_44\n      jumpi\n      dup1\n      0x1f\n      lt\n      tag_45\n      jumpi\n      0x0100\n      dup1\n      dup4\n      sload\n      div\n      mul\n      dup4\n      mstore\n      swap2\n      0x20\n      add\n      swap2\n      jump(tag_44)\n    tag_45:\n      dup3\n      add\n      swap2\n      swap1\n      0x00\n      mstore\n      keccak256(0x00, 0x20)\n      swap1\n    tag_46:\n      dup2\n      sload\n      dup2\n      mstore\n      swap1\n      0x01\n      add\n      swap1\n      0x20\n      add\n      dup1\n      dup4\n      gt\n      tag_46\n      jumpi\n      dup3\n      swap1\n      sub\n      0x1f\n      and\n      dup3\n      add\n      swap2\n    tag_44:\n      pop\n      pop\n      pop\n      pop\n      pop\n      swap1\n      dup1\n      0x02\n      add\n      sload\n      swap1\n      pop\n      dup4\n      jump\t// out\n        /* \"contracts/Token.sol\":1231:1272  mapping(address=>uint256) public balances */\n    tag_16:\n      mstore(0x20, 0x03)\n      dup1\n      0x00\n      mstore\n      keccak256(0x00, 0x40)\n      0x00\n      swap2\n      pop\n      swap1\n      pop\n      sload\n      dup2\n      jump\t// out\n        /* \"contracts/Token.sol\":1708:2437  function burn (uint _val) external returns (string memory){... */\n    tag_22:\n        /* \"contracts/Token.sol\":1752:1765  string memory */\n      0x60\n        /* \"contracts/Token.sol\":1777:1790  address _addr */\n      0x00\n        /* \"contracts/Token.sol\":1793:1803  msg.sender */\n      caller\n        /* \"contracts/Token.sol\":1777:1803  address _addr = msg.sender */\n      swap1\n      pop\n        /* \"contracts/Token.sol\":1817:1826  isPresent */\n      0x04\n        /* \"contracts/Token.sol\":1817:1833  isPresent[_addr] */\n      0x00\n        /* \"contracts/Token.sol\":1827:1832  _addr */\n      dup3\n        /* \"contracts/Token.sol\":1817:1833  isPresent[_addr] */\n      0xffffffffffffffffffffffffffffffffffffffff\n      and\n      0xffffffffffffffffffffffffffffffffffffffff\n      and\n      dup2\n      mstore\n      0x20\n      add\n      swap1\n      dup2\n      mstore\n      0x20\n      add\n      0x00\n      keccak256\n        /* \"contracts/Token.sol\":1817:1848  isPresent[_addr][address(this)] */\n      0x00\n        /* \"contracts/Token.sol\":1842:1846  this */\n      address\n        /* \"contracts/Token.sol\":1817:1848  isPresent[_addr][address(this)] */\n      0xffffffffffffffffffffffffffffffffffffffff\n      and\n      0xffffffffffffffffffffffffffffffffffffffff\n      and\n      dup2\n      mstore\n      0x20\n      add\n      swap1\n      dup2\n      mstore\n      0x20\n      add\n      0x00\n      keccak256\n      0x00\n      swap1\n      sload\n      swap1\n      0x0100\n      exp\n      swap1\n      div\n      0xff\n      and\n        /* \"contracts/Token.sol\":1814:2385  if(isPresent[_addr][address(this)]){... */\n      iszero\n      tag_48\n      jumpi\n        /* \"contracts/Token.sol\":1886:1890  _val */\n      dup3\n        /* \"contracts/Token.sol\":1867:1875  balances */\n      0x03\n        /* \"contracts/Token.sol\":1867:1882  balances[_addr] */\n      0x00\n        /* \"contracts/Token.sol\":1876:1881  _addr */\n      dup4\n        /* \"contracts/Token.sol\":1867:1882  balances[_addr] */\n      0xffffffffffffffffffffffffffffffffffffffff\n      and\n      0xffffffffffffffffffffffffffffffffffffffff\n      and\n      dup2\n      mstore\n      0x20\n      add\n      swap1\n      dup2\n      mstore\n      0x20\n      add\n      0x00\n      keccak256\n      sload\n        /* \"contracts/Token.sol\":1867:1890  balances[_addr] >= _val */\n      lt\n        /* \"contracts/Token.sol\":1864:2374  if(balances[_addr] >= _val){... */\n      tag_49\n      jumpi\n        /* \"contracts/Token.sol\":1929:1933  _val */\n      dup3\n        /* \"contracts/Token.sol\":1910:1918  balances */\n      0x03\n        /* \"contracts/Token.sol\":1910:1925  balances[_addr] */\n      0x00\n        /* \"contracts/Token.sol\":1919:1924  _addr */\n      dup4\n        /* \"contracts/Token.sol\":1910:1925  balances[_addr] */\n      0xffffffffffffffffffffffffffffffffffffffff\n      and\n      0xffffffffffffffffffffffffffffffffffffffff\n      and\n      dup2\n      mstore\n      0x20\n      add\n      swap1\n      dup2\n      mstore\n      0x20\n      add\n      0x00\n      keccak256\n      0x00\n        /* \"contracts/Token.sol\":1910:1933  balances[_addr] -= _val */\n      dup3\n      dup3\n      sload\n      tag_50\n      swap2\n      swap1\n      tag_51\n      jump\t// in\n    tag_50:\n      swap3\n      pop\n      pop\n      dup2\n      swap1\n      sstore\n      pop\n        /* \"contracts/Token.sol\":1972:1976  _val */\n      dup3\n        /* \"contracts/Token.sol\":1952:1956  coin */\n      0x00\n        /* \"contracts/Token.sol\":1952:1968  coin.TotalSupply */\n      0x02\n      add\n      0x00\n        /* \"contracts/Token.sol\":1952:1976  coin.TotalSupply -= _val */\n      dup3\n      dup3\n      sload\n      tag_52\n      swap2\n      swap1\n      tag_51\n      jump\t// in\n    tag_52:\n      swap3\n      pop\n      pop\n      dup2\n      swap1\n      sstore\n      pop\n        /* \"contracts/Token.sol\":2017:2018  0 */\n      0x00\n        /* \"contracts/Token.sol\":1998:2006  balances */\n      0x03\n        /* \"contracts/Token.sol\":1998:2013  balances[_addr] */\n      0x00\n        /* \"contracts/Token.sol\":2007:2012  _addr */\n      dup4\n        /* \"contracts/Token.sol\":1998:2013  balances[_addr] */\n      0xffffffffffffffffffffffffffffffffffffffff\n      and\n      0xffffffffffffffffffffffffffffffffffffffff\n      and\n      dup2\n      mstore\n      0x20\n      add\n      swap1\n      dup2\n      mstore\n      0x20\n      add\n      0x00\n      keccak256\n      sload\n        /* \"contracts/Token.sol\":1998:2018  balances[_addr] == 0 */\n      sub\n        /* \"contracts/Token.sol\":1995:2146  if(balances[_addr] == 0){... */\n      tag_53\n      jumpi\n        /* \"contracts/Token.sol\":2076:2081  false */\n      0x00\n        /* \"contracts/Token.sol\":2042:2051  isPresent */\n      0x04\n        /* \"contracts/Token.sol\":2042:2058  isPresent[_addr] */\n      0x00\n        /* \"contracts/Token.sol\":2052:2057  _addr */\n      dup4\n        /* \"contracts/Token.sol\":2042:2058  isPresent[_addr] */\n      0xffffffffffffffffffffffffffffffffffffffff\n      and\n      0xffffffffffffffffffffffffffffffffffffffff\n      and\n      dup2\n      mstore\n      0x20\n      add\n      swap1\n      dup2\n      mstore\n      0x20\n      add\n      0x00\n      keccak256\n        /* \"contracts/Token.sol\":2042:2073  isPresent[_addr][address(this)] */\n      0x00\n        /* \"contracts/Token.sol\":2067:2071  this */\n      address\n        /* \"contracts/Token.sol\":2042:2073  isPresent[_addr][address(this)] */\n      0xffffffffffffffffffffffffffffffffffffffff\n      and\n      0xffffffffffffffffffffffffffffffffffffffff\n      and\n      dup2\n      mstore\n      0x20\n      add\n      swap1\n      dup2\n      mstore\n      0x20\n      add\n      0x00\n      keccak256\n      0x00\n        /* \"contracts/Token.sol\":2042:2081  isPresent[_addr][address(this)] = false */\n      0x0100\n      exp\n      dup2\n      sload\n      dup2\n      0xff\n      mul\n      not\n      and\n      swap1\n      dup4\n      iszero\n      iszero\n      mul\n      or\n      swap1\n      sstore\n      pop\n        /* \"contracts/Token.sol\":2111:2119  balances */\n      0x03\n        /* \"contracts/Token.sol\":2111:2126  balances[_addr] */\n      0x00\n        /* \"contracts/Token.sol\":2120:2125  _addr */\n      dup3\n        /* \"contracts/Token.sol\":2111:2126  balances[_addr] */\n      0xffffffffffffffffffffffffffffffffffffffff\n      and\n      0xffffffffffffffffffffffffffffffffffffffff\n      and\n      dup2\n      mstore\n      0x20\n      add\n      swap1\n      dup2\n      mstore\n      0x20\n      add\n      0x00\n      keccak256\n        /* \"contracts/Token.sol\":2104:2126  delete balances[_addr] */\n      0x00\n      swap1\n      sstore\n        /* \"contracts/Token.sol\":1995:2146  if(balances[_addr] == 0){... */\n    tag_53:\n        /* \"contracts/Token.sol\":2228:2232  _val */\n      dup3\n        /* \"contracts/Token.sol\":2217:2233  abi.encode(_val) */\n      add(0x20, mload(0x40))\n      tag_54\n      swap2\n      swap1\n      tag_18\n      jump\t// in\n    tag_54:\n      mload(0x40)\n      0x20\n      dup2\n      dup4\n      sub\n      sub\n      dup2\n      mstore\n      swap1\n      0x40\n      mstore\n        /* \"contracts/Token.sol\":2171:2235  string.concat(\"Balance was burned by \",string(abi.encode(_val))) */\n      add(0x20, mload(0x40))\n      tag_55\n      swap2\n      swap1\n      tag_56\n      jump\t// in\n    tag_55:\n      mload(0x40)\n      0x20\n      dup2\n      dup4\n      sub\n      sub\n      dup2\n      mstore\n      swap1\n      0x40\n      mstore\n        /* \"contracts/Token.sol\":2164:2235  return string.concat(\"Balance was burned by \",string(abi.encode(_val))) */\n      swap2\n      pop\n      pop\n      jump(tag_47)\n        /* \"contracts/Token.sol\":1864:2374  if(balances[_addr] >= _val){... */\n    tag_49:\n        /* \"contracts/Token.sol\":2277:2281  _val */\n      dup3\n        /* \"contracts/Token.sol\":2259:2267  balances */\n      0x03\n        /* \"contracts/Token.sol\":2259:2274  balances[_addr] */\n      0x00\n        /* \"contracts/Token.sol\":2268:2273  _addr */\n      dup4\n        /* \"contracts/Token.sol\":2259:2274  balances[_addr] */\n      0xffffffffffffffffffffffffffffffffffffffff\n      and\n      0xffffffffffffffffffffffffffffffffffffffff\n      and\n      dup2\n      mstore\n      0x20\n      add\n      swap1\n      dup2\n      mstore\n      0x20\n      add\n      0x00\n      keccak256\n      sload\n        /* \"contracts/Token.sol\":2259:2281  balances[_addr] < _val */\n      lt\n        /* \"contracts/Token.sol\":2256:2374  if(balances[_addr] < _val){... */\n      iszero\n      tag_58\n      jumpi\n        /* \"contracts/Token.sol\":2301:2358  return \"Error: Balance is less than amount to be burned.\" */\n      mload(0x40)\n      dup1\n      0x60\n      add\n      0x40\n      mstore\n      dup1\n      0x30\n      dup2\n      mstore\n      0x20\n      add\n      data_24620ef47320629cc974ed29f5187fdae814dc0f6c5b1c272380ddff16cacab2\n      0x30\n      swap2\n      codecopy\n      swap2\n      pop\n      pop\n      jump(tag_47)\n        /* \"contracts/Token.sol\":2256:2374  if(balances[_addr] < _val){... */\n    tag_58:\n        /* \"contracts/Token.sol\":1814:2385  if(isPresent[_addr][address(this)]){... */\n    tag_48:\n        /* \"contracts/Token.sol\":2395:2429  return \"Error: Address not found.\" */\n      mload(0x40)\n      dup1\n      0x40\n      add\n      0x40\n      mstore\n      dup1\n      0x19\n      dup2\n      mstore\n      0x20\n      add\n      0x4572726f723a2041646472657373206e6f7420666f756e642e00000000000000\n      dup2\n      mstore\n      pop\n      swap2\n      pop\n      pop\n        /* \"contracts/Token.sol\":1708:2437  function burn (uint _val) external returns (string memory){... */\n    tag_47:\n      swap2\n      swap1\n      pop\n      jump\t// out\n        /* \"contracts/Token.sol\":1484:1680  function mint(uint _val) external{... */\n    tag_27:\n        /* \"contracts/Token.sol\":1528:1541  address _addr */\n      0x00\n        /* \"contracts/Token.sol\":1544:1554  msg.sender */\n      caller\n        /* \"contracts/Token.sol\":1528:1554  address _addr = msg.sender */\n      swap1\n      pop\n        /* \"contracts/Token.sol\":1584:1588  _val */\n      dup2\n        /* \"contracts/Token.sol\":1565:1573  balances */\n      0x03\n        /* \"contracts/Token.sol\":1565:1580  balances[_addr] */\n      0x00\n        /* \"contracts/Token.sol\":1574:1579  _addr */\n      dup4\n        /* \"contracts/Token.sol\":1565:1580  balances[_addr] */\n      0xffffffffffffffffffffffffffffffffffffffff\n      and\n      0xffffffffffffffffffffffffffffffffffffffff\n      and\n      dup2\n      mstore\n      0x20\n      add\n      swap1\n      dup2\n      mstore\n      0x20\n      add\n      0x00\n      keccak256\n      0x00\n        /* \"contracts/Token.sol\":1565:1588  balances[_addr] += _val */\n      dup3\n      dup3\n      sload\n      tag_60\n      swap2\n      swap1\n      tag_61\n      jump\t// in\n    tag_60:\n      swap3\n      pop\n      pop\n      dup2\n      swap1\n      sstore\n      pop\n        /* \"contracts/Token.sol\":1619:1623  _val */\n      dup2\n        /* \"contracts/Token.sol\":1599:1603  coin */\n      0x00\n        /* \"contracts/Token.sol\":1599:1615  coin.TotalSupply */\n      0x02\n      add\n      0x00\n        /* \"contracts/Token.sol\":1599:1623  coin.TotalSupply += _val */\n      dup3\n      dup3\n      sload\n      tag_62\n      swap2\n      swap1\n      tag_61\n      jump\t// in\n    tag_62:\n      swap3\n      pop\n      pop\n      dup2\n      swap1\n      sstore\n      pop\n        /* \"contracts/Token.sol\":1668:1672  true */\n      0x01\n        /* \"contracts/Token.sol\":1634:1643  isPresent */\n      0x04\n        /* \"contracts/Token.sol\":1634:1650  isPresent[_addr] */\n      0x00\n        /* \"contracts/Token.sol\":1644:1649  _addr */\n      dup4\n        /* \"contracts/Token.sol\":1634:1650  isPresent[_addr] */\n      0xffffffffffffffffffffffffffffffffffffffff\n      and\n      0xffffffffffffffffffffffffffffffffffffffff\n      and\n      dup2\n      mstore\n      0x20\n      add\n      swap1\n      dup2\n      mstore\n      0x20\n      add\n      0x00\n      keccak256\n        /* \"contracts/Token.sol\":1634:1665  isPresent[_addr][address(this)] */\n      0x00\n        /* \"contracts/Token.sol\":1659:1663  this */\n      address\n        /* \"contracts/Token.sol\":1634:1665  isPresent[_addr][address(this)] */\n      0xffffffffffffffffffffffffffffffffffffffff\n      and\n      0xffffffffffffffffffffffffffffffffffffffff\n      and\n      dup2\n      mstore\n      0x20\n      add\n      swap1\n      dup2\n      mstore\n      0x20\n      add\n      0x00\n      keccak256\n      0x00\n        /* \"contracts/Token.sol\":1634:1672  isPresent[_addr][address(this)] = true */\n      0x0100\n      exp\n      dup2\n      sload\n      dup2\n      0xff\n      mul\n      not\n      and\n      swap1\n      dup4\n      iszero\n      iszero\n      mul\n      or\n      swap1\n      sstore\n      pop\n        /* \"contracts/Token.sol\":1517:1680  {... */\n      pop\n        /* \"contracts/Token.sol\":1484:1680  function mint(uint _val) external{... */\n      pop\n      jump\t// out\n        /* \"contracts/Token.sol\":1347:1456  function init() external{... */\n    tag_29:\n        /* \"contracts/Token.sol\":1382:1411  coin.Name = \"borjalTokenExer\" */\n      mload(0x40)\n      dup1\n      0x40\n      add\n      0x40\n      mstore\n      dup1\n      0x0f\n      dup2\n      mstore\n      0x20\n      add\n      0x626f726a616c546f6b656e457865720000000000000000000000000000000000\n      dup2\n      mstore\n      pop\n        /* \"contracts/Token.sol\":1382:1386  coin */\n      0x00\n        /* \"contracts/Token.sol\":1382:1391  coin.Name */\n      dup1\n      add\n        /* \"contracts/Token.sol\":1382:1411  coin.Name = \"borjalTokenExer\" */\n      swap1\n      dup2\n      tag_64\n      swap2\n      swap1\n      tag_65\n      jump\t// in\n    tag_64:\n      pop\n        /* \"contracts/Token.sol\":1422:1448  coin.Abbrv = \"borjalTokEx\" */\n      mload(0x40)\n      dup1\n      0x40\n      add\n      0x40\n      mstore\n      dup1\n      0x0b\n      dup2\n      mstore\n      0x20\n      add\n      0x626f726a616c546f6b4578000000000000000000000000000000000000000000\n      dup2\n      mstore\n      pop\n        /* \"contracts/Token.sol\":1422:1426  coin */\n      0x00\n        /* \"contracts/Token.sol\":1422:1432  coin.Abbrv */\n      0x01\n      add\n        /* \"contracts/Token.sol\":1422:1448  coin.Abbrv = \"borjalTokEx\" */\n      swap1\n      dup2\n      tag_66\n      swap2\n      swap1\n      tag_65\n      jump\t// in\n    tag_66:\n      pop\n        /* \"contracts/Token.sol\":1347:1456  function init() external{... */\n      jump\t// out\n        /* \"contracts/Token.sol\":1279:1338  mapping(address => mapping(address=>bool)) public isPresent */\n    tag_33:\n      mstore(0x20, 0x04)\n      dup2\n      0x00\n      mstore\n      mstore(0x20, keccak256(0x00, 0x40))\n      dup1\n      0x00\n      mstore\n      keccak256(0x00, 0x40)\n      0x00\n      swap2\n      pop\n      swap2\n      pop\n      swap1\n      sload\n      swap1\n      0x0100\n      exp\n      swap1\n      div\n      0xff\n      and\n      dup2\n      jump\t// out\n        /* \"#utility.yul\":7:106   */\n    tag_67:\n        /* \"#utility.yul\":59:65   */\n      0x00\n        /* \"#utility.yul\":93:98   */\n      dup2\n        /* \"#utility.yul\":87:99   */\n      mload\n        /* \"#utility.yul\":77:99   */\n      swap1\n      pop\n        /* \"#utility.yul\":7:106   */\n      swap2\n      swap1\n      pop\n      jump\t// out\n        /* \"#utility.yul\":112:281   */\n    tag_68:\n        /* \"#utility.yul\":196:207   */\n      0x00\n        /* \"#utility.yul\":230:236   */\n      dup3\n        /* \"#utility.yul\":225:228   */\n      dup3\n        /* \"#utility.yul\":218:237   */\n      mstore\n        /* \"#utility.yul\":270:274   */\n      0x20\n        /* \"#utility.yul\":265:268   */\n      dup3\n        /* \"#utility.yul\":261:275   */\n      add\n        /* \"#utility.yul\":246:275   */\n      swap1\n      pop\n        /* \"#utility.yul\":112:281   */\n      swap3\n      swap2\n      pop\n      pop\n      jump\t// out\n        /* \"#utility.yul\":287:533   */\n    tag_69:\n        /* \"#utility.yul\":368:369   */\n      0x00\n        /* \"#utility.yul\":378:491   */\n    tag_110:\n        /* \"#utility.yul\":392:398   */\n      dup4\n        /* \"#utility.yul\":389:390   */\n      dup2\n        /* \"#utility.yul\":386:399   */\n      lt\n        /* \"#utility.yul\":378:491   */\n      iszero\n      tag_112\n      jumpi\n        /* \"#utility.yul\":477:478   */\n      dup1\n        /* \"#utility.yul\":472:475   */\n      dup3\n        /* \"#utility.yul\":468:479   */\n      add\n        /* \"#utility.yul\":462:480   */\n      mload\n        /* \"#utility.yul\":458:459   */\n      dup2\n        /* \"#utility.yul\":453:456   */\n      dup5\n        /* \"#utility.yul\":449:460   */\n      add\n        /* \"#utility.yul\":442:481   */\n      mstore\n        /* \"#utility.yul\":414:416   */\n      0x20\n        /* \"#utility.yul\":411:412   */\n      dup2\n        /* \"#utility.yul\":407:417   */\n      add\n        /* \"#utility.yul\":402:417   */\n      swap1\n      pop\n        /* \"#utility.yul\":378:491   */\n      jump(tag_110)\n    tag_112:\n        /* \"#utility.yul\":525:526   */\n      0x00\n        /* \"#utility.yul\":516:522   */\n      dup5\n        /* \"#utility.yul\":511:514   */\n      dup5\n        /* \"#utility.yul\":507:523   */\n      add\n        /* \"#utility.yul\":500:527   */\n      mstore\n        /* \"#utility.yul\":349:533   */\n      pop\n        /* \"#utility.yul\":287:533   */\n      pop\n      pop\n      pop\n      jump\t// out\n        /* \"#utility.yul\":539:641   */\n    tag_70:\n        /* \"#utility.yul\":580:586   */\n      0x00\n        /* \"#utility.yul\":631:633   */\n      0x1f\n        /* \"#utility.yul\":627:634   */\n      not\n        /* \"#utility.yul\":622:624   */\n      0x1f\n        /* \"#utility.yul\":615:620   */\n      dup4\n        /* \"#utility.yul\":611:625   */\n      add\n        /* \"#utility.yul\":607:635   */\n      and\n        /* \"#utility.yul\":597:635   */\n      swap1\n      pop\n        /* \"#utility.yul\":539:641   */\n      swap2\n      swap1\n      pop\n      jump\t// out\n        /* \"#utility.yul\":647:1024   */\n    tag_71:\n        /* \"#utility.yul\":735:738   */\n      0x00\n        /* \"#utility.yul\":763:802   */\n      tag_115\n        /* \"#utility.yul\":796:801   */\n      dup3\n        /* \"#utility.yul\":763:802   */\n      tag_67\n      jump\t// in\n    tag_115:\n        /* \"#utility.yul\":818:889   */\n      tag_116\n        /* \"#utility.yul\":882:888   */\n      dup2\n        /* \"#utility.yul\":877:880   */\n      dup6\n        /* \"#utility.yul\":818:889   */\n      tag_68\n      jump\t// in\n    tag_116:\n        /* \"#utility.yul\":811:889   */\n      swap4\n      pop\n        /* \"#utility.yul\":898:963   */\n      tag_117\n        /* \"#utility.yul\":956:962   */\n      dup2\n        /* \"#utility.yul\":951:954   */\n      dup6\n        /* \"#utility.yul\":944:948   */\n      0x20\n        /* \"#utility.yul\":937:942   */\n      dup7\n        /* \"#utility.yul\":933:949   */\n      add\n        /* \"#utility.yul\":898:963   */\n      tag_69\n      jump\t// in\n    tag_117:\n        /* \"#utility.yul\":988:1017   */\n      tag_118\n        /* \"#utility.yul\":1010:1016   */\n      dup2\n        /* \"#utility.yul\":988:1017   */\n      tag_70\n      jump\t// in\n    tag_118:\n        /* \"#utility.yul\":983:986   */\n      dup5\n        /* \"#utility.yul\":979:1018   */\n      add\n        /* \"#utility.yul\":972:1018   */\n      swap2\n      pop\n        /* \"#utility.yul\":739:1024   */\n      pop\n        /* \"#utility.yul\":647:1024   */\n      swap3\n      swap2\n      pop\n      pop\n      jump\t// out\n        /* \"#utility.yul\":1030:1107   */\n    tag_72:\n        /* \"#utility.yul\":1067:1074   */\n      0x00\n        /* \"#utility.yul\":1096:1101   */\n      dup2\n        /* \"#utility.yul\":1085:1101   */\n      swap1\n      pop\n        /* \"#utility.yul\":1030:1107   */\n      swap2\n      swap1\n      pop\n      jump\t// out\n        /* \"#utility.yul\":1113:1231   */\n    tag_73:\n        /* \"#utility.yul\":1200:1224   */\n      tag_121\n        /* \"#utility.yul\":1218:1223   */\n      dup2\n        /* \"#utility.yul\":1200:1224   */\n      tag_72\n      jump\t// in\n    tag_121:\n        /* \"#utility.yul\":1195:1198   */\n      dup3\n        /* \"#utility.yul\":1188:1225   */\n      mstore\n        /* \"#utility.yul\":1113:1231   */\n      pop\n      pop\n      jump\t// out\n        /* \"#utility.yul\":1237:1861   */\n    tag_12:\n        /* \"#utility.yul\":1426:1430   */\n      0x00\n        /* \"#utility.yul\":1464:1466   */\n      0x60\n        /* \"#utility.yul\":1453:1462   */\n      dup3\n        /* \"#utility.yul\":1449:1467   */\n      add\n        /* \"#utility.yul\":1441:1467   */\n      swap1\n      pop\n        /* \"#utility.yul\":1513:1522   */\n      dup2\n        /* \"#utility.yul\":1507:1511   */\n      dup2\n        /* \"#utility.yul\":1503:1523   */\n      sub\n        /* \"#utility.yul\":1499:1500   */\n      0x00\n        /* \"#utility.yul\":1488:1497   */\n      dup4\n        /* \"#utility.yul\":1484:1501   */\n      add\n        /* \"#utility.yul\":1477:1524   */\n      mstore\n        /* \"#utility.yul\":1541:1619   */\n      tag_123\n        /* \"#utility.yul\":1614:1618   */\n      dup2\n        /* \"#utility.yul\":1605:1611   */\n      dup7\n        /* \"#utility.yul\":1541:1619   */\n      tag_71\n      jump\t// in\n    tag_123:\n        /* \"#utility.yul\":1533:1619   */\n      swap1\n      pop\n        /* \"#utility.yul\":1666:1675   */\n      dup2\n        /* \"#utility.yul\":1660:1664   */\n      dup2\n        /* \"#utility.yul\":1656:1676   */\n      sub\n        /* \"#utility.yul\":1651:1653   */\n      0x20\n        /* \"#utility.yul\":1640:1649   */\n      dup4\n        /* \"#utility.yul\":1636:1654   */\n      add\n        /* \"#utility.yul\":1629:1677   */\n      mstore\n        /* \"#utility.yul\":1694:1772   */\n      tag_124\n        /* \"#utility.yul\":1767:1771   */\n      dup2\n        /* \"#utility.yul\":1758:1764   */\n      dup6\n        /* \"#utility.yul\":1694:1772   */\n      tag_71\n      jump\t// in\n    tag_124:\n        /* \"#utility.yul\":1686:1772   */\n      swap1\n      pop\n        /* \"#utility.yul\":1782:1854   */\n      tag_125\n        /* \"#utility.yul\":1850:1852   */\n      0x40\n        /* \"#utility.yul\":1839:1848   */\n      dup4\n        /* \"#utility.yul\":1835:1853   */\n      add\n        /* \"#utility.yul\":1826:1832   */\n      dup5\n        /* \"#utility.yul\":1782:1854   */\n      tag_73\n      jump\t// in\n    tag_125:\n        /* \"#utility.yul\":1237:1861   */\n      swap5\n      swap4\n      pop\n      pop\n      pop\n      pop\n      jump\t// out\n        /* \"#utility.yul\":1948:2065   */\n    tag_75:\n        /* \"#utility.yul\":2057:2058   */\n      0x00\n        /* \"#utility.yul\":2054:2055   */\n      dup1\n        /* \"#utility.yul\":2047:2059   */\n      revert\n        /* \"#utility.yul\":2194:2320   */\n    tag_77:\n        /* \"#utility.yul\":2231:2238   */\n      0x00\n        /* \"#utility.yul\":2271:2313   */\n      0xffffffffffffffffffffffffffffffffffffffff\n        /* \"#utility.yul\":2264:2269   */\n      dup3\n        /* \"#utility.yul\":2260:2314   */\n      and\n        /* \"#utility.yul\":2249:2314   */\n      swap1\n      pop\n        /* \"#utility.yul\":2194:2320   */\n      swap2\n      swap1\n      pop\n      jump\t// out\n        /* \"#utility.yul\":2326:2422   */\n    tag_78:\n        /* \"#utility.yul\":2363:2370   */\n      0x00\n        /* \"#utility.yul\":2392:2416   */\n      tag_131\n        /* \"#utility.yul\":2410:2415   */\n      dup3\n        /* \"#utility.yul\":2392:2416   */\n      tag_77\n      jump\t// in\n    tag_131:\n        /* \"#utility.yul\":2381:2416   */\n      swap1\n      pop\n        /* \"#utility.yul\":2326:2422   */\n      swap2\n      swap1\n      pop\n      jump\t// out\n        /* \"#utility.yul\":2428:2550   */\n    tag_79:\n        /* \"#utility.yul\":2501:2525   */\n      tag_133\n        /* \"#utility.yul\":2519:2524   */\n      dup2\n        /* \"#utility.yul\":2501:2525   */\n      tag_78\n      jump\t// in\n    tag_133:\n        /* \"#utility.yul\":2494:2499   */\n      dup2\n        /* \"#utility.yul\":2491:2526   */\n      eq\n        /* \"#utility.yul\":2481:2544   */\n      tag_134\n      jumpi\n        /* \"#utility.yul\":2540:2541   */\n      0x00\n        /* \"#utility.yul\":2537:2538   */\n      dup1\n        /* \"#utility.yul\":2530:2542   */\n      revert\n        /* \"#utility.yul\":2481:2544   */\n    tag_134:\n        /* \"#utility.yul\":2428:2550   */\n      pop\n      jump\t// out\n        /* \"#utility.yul\":2556:2695   */\n    tag_80:\n        /* \"#utility.yul\":2602:2607   */\n      0x00\n        /* \"#utility.yul\":2640:2646   */\n      dup2\n        /* \"#utility.yul\":2627:2647   */\n      calldataload\n        /* \"#utility.yul\":2618:2647   */\n      swap1\n      pop\n        /* \"#utility.yul\":2656:2689   */\n      tag_136\n        /* \"#utility.yul\":2683:2688   */\n      dup2\n        /* \"#utility.yul\":2656:2689   */\n      tag_79\n      jump\t// in\n    tag_136:\n        /* \"#utility.yul\":2556:2695   */\n      swap3\n      swap2\n      pop\n      pop\n      jump\t// out\n        /* \"#utility.yul\":2701:3030   */\n    tag_15:\n        /* \"#utility.yul\":2760:2766   */\n      0x00\n        /* \"#utility.yul\":2809:2811   */\n      0x20\n        /* \"#utility.yul\":2797:2806   */\n      dup3\n        /* \"#utility.yul\":2788:2795   */\n      dup5\n        /* \"#utility.yul\":2784:2807   */\n      sub\n        /* \"#utility.yul\":2780:2812   */\n      slt\n        /* \"#utility.yul\":2777:2896   */\n      iszero\n      tag_138\n      jumpi\n        /* \"#utility.yul\":2815:2894   */\n      tag_139\n      tag_75\n      jump\t// in\n    tag_139:\n        /* \"#utility.yul\":2777:2896   */\n    tag_138:\n        /* \"#utility.yul\":2935:2936   */\n      0x00\n        /* \"#utility.yul\":2960:3013   */\n      tag_140\n        /* \"#utility.yul\":3005:3012   */\n      dup5\n        /* \"#utility.yul\":2996:3002   */\n      dup3\n        /* \"#utility.yul\":2985:2994   */\n      dup6\n        /* \"#utility.yul\":2981:3003   */\n      add\n        /* \"#utility.yul\":2960:3013   */\n      tag_80\n      jump\t// in\n    tag_140:\n        /* \"#utility.yul\":2950:3013   */\n      swap2\n      pop\n        /* \"#utility.yul\":2906:3023   */\n      pop\n        /* \"#utility.yul\":2701:3030   */\n      swap3\n      swap2\n      pop\n      pop\n      jump\t// out\n        /* \"#utility.yul\":3036:3258   */\n    tag_18:\n        /* \"#utility.yul\":3129:3133   */\n      0x00\n        /* \"#utility.yul\":3167:3169   */\n      0x20\n        /* \"#utility.yul\":3156:3165   */\n      dup3\n        /* \"#utility.yul\":3152:3170   */\n      add\n        /* \"#utility.yul\":3144:3170   */\n      swap1\n      pop\n        /* \"#utility.yul\":3180:3251   */\n      tag_142\n        /* \"#utility.yul\":3248:3249   */\n      0x00\n        /* \"#utility.yul\":3237:3246   */\n      dup4\n        /* \"#utility.yul\":3233:3250   */\n      add\n        /* \"#utility.yul\":3224:3230   */\n      dup5\n        /* \"#utility.yul\":3180:3251   */\n      tag_73\n      jump\t// in\n    tag_142:\n        /* \"#utility.yul\":3036:3258   */\n      swap3\n      swap2\n      pop\n      pop\n      jump\t// out\n        /* \"#utility.yul\":3264:3386   */\n    tag_81:\n        /* \"#utility.yul\":3337:3361   */\n      tag_144\n        /* \"#utility.yul\":3355:3360   */\n      dup2\n        /* \"#utility.yul\":3337:3361   */\n      tag_72\n      jump\t// in\n    tag_144:\n        /* \"#utility.yul\":3330:3335   */\n      dup2\n        /* \"#utility.yul\":3327:3362   */\n      eq\n        /* \"#utility.yul\":3317:3380   */\n      tag_145\n      jumpi\n        /* \"#utility.yul\":3376:3377   */\n      0x00\n        /* \"#utility.yul\":3373:3374   */\n      dup1\n        /* \"#utility.yul\":3366:3378   */\n      revert\n        /* \"#utility.yul\":3317:3380   */\n    tag_145:\n        /* \"#utility.yul\":3264:3386   */\n      pop\n      jump\t// out\n        /* \"#utility.yul\":3392:3531   */\n    tag_82:\n        /* \"#utility.yul\":3438:3443   */\n      0x00\n        /* \"#utility.yul\":3476:3482   */\n      dup2\n        /* \"#utility.yul\":3463:3483   */\n      calldataload\n        /* \"#utility.yul\":3454:3483   */\n      swap1\n      pop\n        /* \"#utility.yul\":3492:3525   */\n      tag_147\n        /* \"#utility.yul\":3519:3524   */\n      dup2\n        /* \"#utility.yul\":3492:3525   */\n      tag_81\n      jump\t// in\n    tag_147:\n        /* \"#utility.yul\":3392:3531   */\n      swap3\n      swap2\n      pop\n      pop\n      jump\t// out\n        /* \"#utility.yul\":3537:3866   */\n    tag_21:\n        /* \"#utility.yul\":3596:3602   */\n      0x00\n        /* \"#utility.yul\":3645:3647   */\n      0x20\n        /* \"#utility.yul\":3633:3642   */\n      dup3\n        /* \"#utility.yul\":3624:3631   */\n      dup5\n        /* \"#utility.yul\":3620:3643   */\n      sub\n        /* \"#utility.yul\":3616:3648   */\n      slt\n        /* \"#utility.yul\":3613:3732   */\n      iszero\n      tag_149\n      jumpi\n        /* \"#utility.yul\":3651:3730   */\n      tag_150\n      tag_75\n      jump\t// in\n    tag_150:\n        /* \"#utility.yul\":3613:3732   */\n    tag_149:\n        /* \"#utility.yul\":3771:3772   */\n      0x00\n        /* \"#utility.yul\":3796:3849   */\n      tag_151\n        /* \"#utility.yul\":3841:3848   */\n      dup5\n        /* \"#utility.yul\":3832:3838   */\n      dup3\n        /* \"#utility.yul\":3821:3830   */\n      dup6\n        /* \"#utility.yul\":3817:3839   */\n      add\n        /* \"#utility.yul\":3796:3849   */\n      tag_82\n      jump\t// in\n    tag_151:\n        /* \"#utility.yul\":3786:3849   */\n      swap2\n      pop\n        /* \"#utility.yul\":3742:3859   */\n      pop\n        /* \"#utility.yul\":3537:3866   */\n      swap3\n      swap2\n      pop\n      pop\n      jump\t// out\n        /* \"#utility.yul\":3872:4185   */\n    tag_24:\n        /* \"#utility.yul\":3985:3989   */\n      0x00\n        /* \"#utility.yul\":4023:4025   */\n      0x20\n        /* \"#utility.yul\":4012:4021   */\n      dup3\n        /* \"#utility.yul\":4008:4026   */\n      add\n        /* \"#utility.yul\":4000:4026   */\n      swap1\n      pop\n        /* \"#utility.yul\":4072:4081   */\n      dup2\n        /* \"#utility.yul\":4066:4070   */\n      dup2\n        /* \"#utility.yul\":4062:4082   */\n      sub\n        /* \"#utility.yul\":4058:4059   */\n      0x00\n        /* \"#utility.yul\":4047:4056   */\n      dup4\n        /* \"#utility.yul\":4043:4060   */\n      add\n        /* \"#utility.yul\":4036:4083   */\n      mstore\n        /* \"#utility.yul\":4100:4178   */\n      tag_153\n        /* \"#utility.yul\":4173:4177   */\n      dup2\n        /* \"#utility.yul\":4164:4170   */\n      dup5\n        /* \"#utility.yul\":4100:4178   */\n      tag_71\n      jump\t// in\n    tag_153:\n        /* \"#utility.yul\":4092:4178   */\n      swap1\n      pop\n        /* \"#utility.yul\":3872:4185   */\n      swap3\n      swap2\n      pop\n      pop\n      jump\t// out\n        /* \"#utility.yul\":4191:4665   */\n    tag_32:\n        /* \"#utility.yul\":4259:4265   */\n      0x00\n        /* \"#utility.yul\":4267:4273   */\n      dup1\n        /* \"#utility.yul\":4316:4318   */\n      0x40\n        /* \"#utility.yul\":4304:4313   */\n      dup4\n        /* \"#utility.yul\":4295:4302   */\n      dup6\n        /* \"#utility.yul\":4291:4314   */\n      sub\n        /* \"#utility.yul\":4287:4319   */\n      slt\n        /* \"#utility.yul\":4284:4403   */\n      iszero\n      tag_155\n      jumpi\n        /* \"#utility.yul\":4322:4401   */\n      tag_156\n      tag_75\n      jump\t// in\n    tag_156:\n        /* \"#utility.yul\":4284:4403   */\n    tag_155:\n        /* \"#utility.yul\":4442:4443   */\n      0x00\n        /* \"#utility.yul\":4467:4520   */\n      tag_157\n        /* \"#utility.yul\":4512:4519   */\n      dup6\n        /* \"#utility.yul\":4503:4509   */\n      dup3\n        /* \"#utility.yul\":4492:4501   */\n      dup7\n        /* \"#utility.yul\":4488:4510   */\n      add\n        /* \"#utility.yul\":4467:4520   */\n      tag_80\n      jump\t// in\n    tag_157:\n        /* \"#utility.yul\":4457:4520   */\n      swap3\n      pop\n        /* \"#utility.yul\":4413:4530   */\n      pop\n        /* \"#utility.yul\":4569:4571   */\n      0x20\n        /* \"#utility.yul\":4595:4648   */\n      tag_158\n        /* \"#utility.yul\":4640:4647   */\n      dup6\n        /* \"#utility.yul\":4631:4637   */\n      dup3\n        /* \"#utility.yul\":4620:4629   */\n      dup7\n        /* \"#utility.yul\":4616:4638   */\n      add\n        /* \"#utility.yul\":4595:4648   */\n      tag_80\n      jump\t// in\n    tag_158:\n        /* \"#utility.yul\":4585:4648   */\n      swap2\n      pop\n        /* \"#utility.yul\":4540:4658   */\n      pop\n        /* \"#utility.yul\":4191:4665   */\n      swap3\n      pop\n      swap3\n      swap1\n      pop\n      jump\t// out\n        /* \"#utility.yul\":4671:4761   */\n    tag_83:\n        /* \"#utility.yul\":4705:4712   */\n      0x00\n        /* \"#utility.yul\":4748:4753   */\n      dup2\n        /* \"#utility.yul\":4741:4754   */\n      iszero\n        /* \"#utility.yul\":4734:4755   */\n      iszero\n        /* \"#utility.yul\":4723:4755   */\n      swap1\n      pop\n        /* \"#utility.yul\":4671:4761   */\n      swap2\n      swap1\n      pop\n      jump\t// out\n        /* \"#utility.yul\":4767:4876   */\n    tag_84:\n        /* \"#utility.yul\":4848:4869   */\n      tag_161\n        /* \"#utility.yul\":4863:4868   */\n      dup2\n        /* \"#utility.yul\":4848:4869   */\n      tag_83\n      jump\t// in\n    tag_161:\n        /* \"#utility.yul\":4843:4846   */\n      dup3\n        /* \"#utility.yul\":4836:4870   */\n      mstore\n        /* \"#utility.yul\":4767:4876   */\n      pop\n      pop\n      jump\t// out\n        /* \"#utility.yul\":4882:5092   */\n    tag_35:\n        /* \"#utility.yul\":4969:4973   */\n      0x00\n        /* \"#utility.yul\":5007:5009   */\n      0x20\n        /* \"#utility.yul\":4996:5005   */\n      dup3\n        /* \"#utility.yul\":4992:5010   */\n      add\n        /* \"#utility.yul\":4984:5010   */\n      swap1\n      pop\n        /* \"#utility.yul\":5020:5085   */\n      tag_163\n        /* \"#utility.yul\":5082:5083   */\n      0x00\n        /* \"#utility.yul\":5071:5080   */\n      dup4\n        /* \"#utility.yul\":5067:5084   */\n      add\n        /* \"#utility.yul\":5058:5064   */\n      dup5\n        /* \"#utility.yul\":5020:5085   */\n      tag_84\n      jump\t// in\n    tag_163:\n        /* \"#utility.yul\":4882:5092   */\n      swap3\n      swap2\n      pop\n      pop\n      jump\t// out\n        /* \"#utility.yul\":5098:5278   */\n    tag_85:\n        /* \"#utility.yul\":5146:5223   */\n      0x4e487b7100000000000000000000000000000000000000000000000000000000\n        /* \"#utility.yul\":5143:5144   */\n      0x00\n        /* \"#utility.yul\":5136:5224   */\n      mstore\n        /* \"#utility.yul\":5243:5247   */\n      0x22\n        /* \"#utility.yul\":5240:5241   */\n      0x04\n        /* \"#utility.yul\":5233:5248   */\n      mstore\n        /* \"#utility.yul\":5267:5271   */\n      0x24\n        /* \"#utility.yul\":5264:5265   */\n      0x00\n        /* \"#utility.yul\":5257:5272   */\n      revert\n        /* \"#utility.yul\":5284:5604   */\n    tag_37:\n        /* \"#utility.yul\":5328:5334   */\n      0x00\n        /* \"#utility.yul\":5365:5366   */\n      0x02\n        /* \"#utility.yul\":5359:5363   */\n      dup3\n        /* \"#utility.yul\":5355:5367   */\n      div\n        /* \"#utility.yul\":5345:5367   */\n      swap1\n      pop\n        /* \"#utility.yul\":5412:5413   */\n      0x01\n        /* \"#utility.yul\":5406:5410   */\n      dup3\n        /* \"#utility.yul\":5402:5414   */\n      and\n        /* \"#utility.yul\":5433:5451   */\n      dup1\n        /* \"#utility.yul\":5423:5504   */\n      tag_166\n      jumpi\n        /* \"#utility.yul\":5489:5493   */\n      0x7f\n        /* \"#utility.yul\":5481:5487   */\n      dup3\n        /* \"#utility.yul\":5477:5494   */\n      and\n        /* \"#utility.yul\":5467:5494   */\n      swap2\n      pop\n        /* \"#utility.yul\":5423:5504   */\n    tag_166:\n        /* \"#utility.yul\":5551:5553   */\n      0x20\n        /* \"#utility.yul\":5543:5549   */\n      dup3\n        /* \"#utility.yul\":5540:5554   */\n      lt\n        /* \"#utility.yul\":5520:5538   */\n      dup2\n        /* \"#utility.yul\":5517:5555   */\n      sub\n        /* \"#utility.yul\":5514:5598   */\n      tag_167\n      jumpi\n        /* \"#utility.yul\":5570:5588   */\n      tag_168\n      tag_85\n      jump\t// in\n    tag_168:\n        /* \"#utility.yul\":5514:5598   */\n    tag_167:\n        /* \"#utility.yul\":5335:5604   */\n      pop\n        /* \"#utility.yul\":5284:5604   */\n      swap2\n      swap1\n      pop\n      jump\t// out\n        /* \"#utility.yul\":5610:5790   */\n    tag_86:\n        /* \"#utility.yul\":5658:5735   */\n      0x4e487b7100000000000000000000000000000000000000000000000000000000\n        /* \"#utility.yul\":5655:5656   */\n      0x00\n        /* \"#utility.yul\":5648:5736   */\n      mstore\n        /* \"#utility.yul\":5755:5759   */\n      0x11\n        /* \"#utility.yul\":5752:5753   */\n      0x04\n        /* \"#utility.yul\":5745:5760   */\n      mstore\n        /* \"#utility.yul\":5779:5783   */\n      0x24\n        /* \"#utility.yul\":5776:5777   */\n      0x00\n        /* \"#utility.yul\":5769:5784   */\n      revert\n        /* \"#utility.yul\":5796:5990   */\n    tag_51:\n        /* \"#utility.yul\":5836:5840   */\n      0x00\n        /* \"#utility.yul\":5856:5876   */\n      tag_171\n        /* \"#utility.yul\":5874:5875   */\n      dup3\n        /* \"#utility.yul\":5856:5876   */\n      tag_72\n      jump\t// in\n    tag_171:\n        /* \"#utility.yul\":5851:5876   */\n      swap2\n      pop\n        /* \"#utility.yul\":5890:5910   */\n      tag_172\n        /* \"#utility.yul\":5908:5909   */\n      dup4\n        /* \"#utility.yul\":5890:5910   */\n      tag_72\n      jump\t// in\n    tag_172:\n        /* \"#utility.yul\":5885:5910   */\n      swap3\n      pop\n        /* \"#utility.yul\":5934:5935   */\n      dup3\n        /* \"#utility.yul\":5931:5932   */\n      dup3\n        /* \"#utility.yul\":5927:5936   */\n      sub\n        /* \"#utility.yul\":5919:5936   */\n      swap1\n      pop\n        /* \"#utility.yul\":5958:5959   */\n      dup2\n        /* \"#utility.yul\":5952:5956   */\n      dup2\n        /* \"#utility.yul\":5949:5960   */\n      gt\n        /* \"#utility.yul\":5946:5983   */\n      iszero\n      tag_173\n      jumpi\n        /* \"#utility.yul\":5963:5981   */\n      tag_174\n      tag_86\n      jump\t// in\n    tag_174:\n        /* \"#utility.yul\":5946:5983   */\n    tag_173:\n        /* \"#utility.yul\":5796:5990   */\n      swap3\n      swap2\n      pop\n      pop\n      jump\t// out\n        /* \"#utility.yul\":5996:6196   */\n    tag_87:\n        /* \"#utility.yul\":6165:6189   */\n      0x42616c616e636520776173206275726e65642062792000000000000000000000\n        /* \"#utility.yul\":6160:6163   */\n      dup2\n        /* \"#utility.yul\":6153:6190   */\n      mstore\n        /* \"#utility.yul\":5996:6196   */\n      pop\n      jump\t// out\n        /* \"#utility.yul\":6202:6350   */\n    tag_88:\n        /* \"#utility.yul\":6304:6315   */\n      0x00\n        /* \"#utility.yul\":6341:6344   */\n      dup2\n        /* \"#utility.yul\":6326:6344   */\n      swap1\n      pop\n        /* \"#utility.yul\":6202:6350   */\n      swap3\n      swap2\n      pop\n      pop\n      jump\t// out\n        /* \"#utility.yul\":6356:6746   */\n    tag_89:\n        /* \"#utility.yul\":6462:6465   */\n      0x00\n        /* \"#utility.yul\":6490:6529   */\n      tag_178\n        /* \"#utility.yul\":6523:6528   */\n      dup3\n        /* \"#utility.yul\":6490:6529   */\n      tag_67\n      jump\t// in\n    tag_178:\n        /* \"#utility.yul\":6545:6634   */\n      tag_179\n        /* \"#utility.yul\":6627:6633   */\n      dup2\n        /* \"#utility.yul\":6622:6625   */\n      dup6\n        /* \"#utility.yul\":6545:6634   */\n      tag_88\n      jump\t// in\n    tag_179:\n        /* \"#utility.yul\":6538:6634   */\n      swap4\n      pop\n        /* \"#utility.yul\":6643:6708   */\n      tag_180\n        /* \"#utility.yul\":6701:6707   */\n      dup2\n        /* \"#utility.yul\":6696:6699   */\n      dup6\n        /* \"#utility.yul\":6689:6693   */\n      0x20\n        /* \"#utility.yul\":6682:6687   */\n      dup7\n        /* \"#utility.yul\":6678:6694   */\n      add\n        /* \"#utility.yul\":6643:6708   */\n      tag_69\n      jump\t// in\n    tag_180:\n        /* \"#utility.yul\":6733:6739   */\n      dup1\n        /* \"#utility.yul\":6728:6731   */\n      dup5\n        /* \"#utility.yul\":6724:6740   */\n      add\n        /* \"#utility.yul\":6717:6740   */\n      swap2\n      pop\n        /* \"#utility.yul\":6466:6746   */\n      pop\n        /* \"#utility.yul\":6356:6746   */\n      swap3\n      swap2\n      pop\n      pop\n      jump\t// out\n        /* \"#utility.yul\":6752:7294   */\n    tag_56:\n        /* \"#utility.yul\":6975:6978   */\n      0x00\n        /* \"#utility.yul\":6990:7128   */\n      tag_182\n        /* \"#utility.yul\":7124:7127   */\n      dup3\n        /* \"#utility.yul\":6990:7128   */\n      tag_87\n      jump\t// in\n    tag_182:\n        /* \"#utility.yul\":7153:7155   */\n      0x16\n        /* \"#utility.yul\":7148:7151   */\n      dup3\n        /* \"#utility.yul\":7144:7156   */\n      add\n        /* \"#utility.yul\":7137:7156   */\n      swap2\n      pop\n        /* \"#utility.yul\":7173:7268   */\n      tag_183\n        /* \"#utility.yul\":7264:7267   */\n      dup3\n        /* \"#utility.yul\":7255:7261   */\n      dup5\n        /* \"#utility.yul\":7173:7268   */\n      tag_89\n      jump\t// in\n    tag_183:\n        /* \"#utility.yul\":7166:7268   */\n      swap2\n      pop\n        /* \"#utility.yul\":7285:7288   */\n      dup2\n        /* \"#utility.yul\":7278:7288   */\n      swap1\n      pop\n        /* \"#utility.yul\":6752:7294   */\n      swap3\n      swap2\n      pop\n      pop\n      jump\t// out\n        /* \"#utility.yul\":7300:7491   */\n    tag_61:\n        /* \"#utility.yul\":7340:7343   */\n      0x00\n        /* \"#utility.yul\":7359:7379   */\n      tag_185\n        /* \"#utility.yul\":7377:7378   */\n      dup3\n        /* \"#utility.yul\":7359:7379   */\n      tag_72\n      jump\t// in\n    tag_185:\n        /* \"#utility.yul\":7354:7379   */\n      swap2\n      pop\n        /* \"#utility.yul\":7393:7413   */\n      tag_186\n        /* \"#utility.yul\":7411:7412   */\n      dup4\n        /* \"#utility.yul\":7393:7413   */\n      tag_72\n      jump\t// in\n    tag_186:\n        /* \"#utility.yul\":7388:7413   */\n      swap3\n      pop\n        /* \"#utility.yul\":7436:7437   */\n      dup3\n        /* \"#utility.yul\":7433:7434   */\n      dup3\n        /* \"#utility.yul\":7429:7438   */\n      add\n        /* \"#utility.yul\":7422:7438   */\n      swap1\n      pop\n        /* \"#utility.yul\":7457:7460   */\n      dup1\n        /* \"#utility.yul\":7454:7455   */\n      dup3\n        /* \"#utility.yul\":7451:7461   */\n      gt\n        /* \"#utility.yul\":7448:7484   */\n      iszero\n      tag_187\n      jumpi\n        /* \"#utility.yul\":7464:7482   */\n      tag_188\n      tag_86\n      jump\t// in\n    tag_188:\n        /* \"#utility.yul\":7448:7484   */\n    tag_187:\n        /* \"#utility.yul\":7300:7491   */\n      swap3\n      swap2\n      pop\n      pop\n      jump\t// out\n        /* \"#utility.yul\":7497:7677   */\n    tag_90:\n        /* \"#utility.yul\":7545:7622   */\n      0x4e487b7100000000000000000000000000000000000000000000000000000000\n        /* \"#utility.yul\":7542:7543   */\n      0x00\n        /* \"#utility.yul\":7535:7623   */\n      mstore\n        /* \"#utility.yul\":7642:7646   */\n      0x41\n        /* \"#utility.yul\":7639:7640   */\n      0x04\n        /* \"#utility.yul\":7632:7647   */\n      mstore\n        /* \"#utility.yul\":7666:7670   */\n      0x24\n        /* \"#utility.yul\":7663:7664   */\n      0x00\n        /* \"#utility.yul\":7656:7671   */\n      revert\n        /* \"#utility.yul\":7683:7824   */\n    tag_91:\n        /* \"#utility.yul\":7732:7736   */\n      0x00\n        /* \"#utility.yul\":7755:7758   */\n      dup2\n        /* \"#utility.yul\":7747:7758   */\n      swap1\n      pop\n        /* \"#utility.yul\":7778:7781   */\n      dup2\n        /* \"#utility.yul\":7775:7776   */\n      0x00\n        /* \"#utility.yul\":7768:7782   */\n      mstore\n        /* \"#utility.yul\":7812:7816   */\n      0x20\n        /* \"#utility.yul\":7809:7810   */\n      0x00\n        /* \"#utility.yul\":7799:7817   */\n      keccak256\n        /* \"#utility.yul\":7791:7817   */\n      swap1\n      pop\n        /* \"#utility.yul\":7683:7824   */\n      swap2\n      swap1\n      pop\n      jump\t// out\n        /* \"#utility.yul\":7830:7923   */\n    tag_92:\n        /* \"#utility.yul\":7867:7873   */\n      0x00\n        /* \"#utility.yul\":7914:7916   */\n      0x20\n        /* \"#utility.yul\":7909:7911   */\n      0x1f\n        /* \"#utility.yul\":7902:7907   */\n      dup4\n        /* \"#utility.yul\":7898:7912   */\n      add\n        /* \"#utility.yul\":7894:7917   */\n      div\n        /* \"#utility.yul\":7884:7917   */\n      swap1\n      pop\n        /* \"#utility.yul\":7830:7923   */\n      swap2\n      swap1\n      pop\n      jump\t// out\n        /* \"#utility.yul\":7929:8036   */\n    tag_93:\n        /* \"#utility.yul\":7973:7981   */\n      0x00\n        /* \"#utility.yul\":8023:8028   */\n      dup3\n        /* \"#utility.yul\":8017:8021   */\n      dup3\n        /* \"#utility.yul\":8013:8029   */\n      shl\n        /* \"#utility.yul\":7992:8029   */\n      swap1\n      pop\n        /* \"#utility.yul\":7929:8036   */\n      swap3\n      swap2\n      pop\n      pop\n      jump\t// out\n        /* \"#utility.yul\":8042:8435   */\n    tag_94:\n        /* \"#utility.yul\":8111:8117   */\n      0x00\n        /* \"#utility.yul\":8161:8162   */\n      0x08\n        /* \"#utility.yul\":8149:8159   */\n      dup4\n        /* \"#utility.yul\":8145:8163   */\n      mul\n        /* \"#utility.yul\":8184:8281   */\n      tag_194\n        /* \"#utility.yul\":8214:8280   */\n      0xffffffffffffffffffffffffffffffffffffffffffffffffffffffffffffffff\n        /* \"#utility.yul\":8203:8212   */\n      dup3\n        /* \"#utility.yul\":8184:8281   */\n      tag_93\n      jump\t// in\n    tag_194:\n        /* \"#utility.yul\":8302:8341   */\n      tag_195\n        /* \"#utility.yul\":8332:8340   */\n      dup7\n        /* \"#utility.yul\":8321:8330   */\n      dup4\n        /* \"#utility.yul\":8302:8341   */\n      tag_93\n      jump\t// in\n    tag_195:\n        /* \"#utility.yul\":8290:8341   */\n      swap6\n      pop\n        /* \"#utility.yul\":8374:8378   */\n      dup1\n        /* \"#utility.yul\":8370:8379   */\n      not\n        /* \"#utility.yul\":8363:8368   */\n      dup5\n        /* \"#utility.yul\":8359:8380   */\n      and\n        /* \"#utility.yul\":8350:8380   */\n      swap4\n      pop\n        /* \"#utility.yul\":8423:8427   */\n      dup1\n        /* \"#utility.yul\":8413:8421   */\n      dup7\n        /* \"#utility.yul\":8409:8428   */\n      and\n        /* \"#utility.yul\":8402:8407   */\n      dup5\n        /* \"#utility.yul\":8399:8429   */\n      or\n        /* \"#utility.yul\":8389:8429   */\n      swap3\n      pop\n        /* \"#utility.yul\":8118:8435   */\n      pop\n      pop\n        /* \"#utility.yul\":8042:8435   */\n      swap4\n      swap3\n      pop\n      pop\n      pop\n      jump\t// out\n        /* \"#utility.yul\":8441:8501   */\n    tag_95:\n        /* \"#utility.yul\":8469:8472   */\n      0x00\n        /* \"#utility.yul\":8490:8495   */\n      dup2\n        /* \"#utility.yul\":8483:8495   */\n      swap1\n      pop\n        /* \"#utility.yul\":8441:8501   */\n      swap2\n      swap1\n      pop\n      jump\t// out\n        /* \"#utility.yul\":8507:8649   */\n    tag_96:\n        /* \"#utility.yul\":8557:8566   */\n      0x00\n        /* \"#utility.yul\":8590:8643   */\n      tag_198\n        /* \"#utility.yul\":8608:8642   */\n      tag_199\n        /* \"#utility.yul\":8617:8641   */\n      tag_200\n        /* \"#utility.yul\":8635:8640   */\n      dup5\n        /* \"#utility.yul\":8617:8641   */\n      tag_72\n      jump\t// in\n    tag_200:\n        /* \"#utility.yul\":8608:8642   */\n      tag_95\n      jump\t// in\n    tag_199:\n        /* \"#utility.yul\":8590:8643   */\n      tag_72\n      jump\t// in\n    tag_198:\n        /* \"#utility.yul\":8577:8643   */\n      swap1\n      pop\n        /* \"#utility.yul\":8507:8649   */\n      swap2\n      swap1\n      pop\n      jump\t// out\n        /* \"#utility.yul\":8655:8730   */\n    tag_97:\n        /* \"#utility.yul\":8698:8701   */\n      0x00\n        /* \"#utility.yul\":8719:8724   */\n      dup2\n        /* \"#utility.yul\":8712:8724   */\n      swap1\n      pop\n        /* \"#utility.yul\":8655:8730   */\n      swap2\n      swap1\n      pop\n      jump\t// out\n        /* \"#utility.yul\":8736:9005   */\n    tag_98:\n        /* \"#utility.yul\":8846:8885   */\n      tag_203\n        /* \"#utility.yul\":8877:8884   */\n      dup4\n        /* \"#utility.yul\":8846:8885   */\n      tag_96\n      jump\t// in\n    tag_203:\n        /* \"#utility.yul\":8907:8998   */\n      tag_204\n        /* \"#utility.yul\":8956:8997   */\n      tag_205\n        /* \"#utility.yul\":8980:8996   */\n      dup3\n        /* \"#utility.yul\":8956:8997   */\n      tag_97\n      jump\t// in\n    tag_205:\n        /* \"#utility.yul\":8948:8954   */\n      dup5\n        /* \"#utility.yul\":8941:8945   */\n      dup5\n        /* \"#utility.yul\":8935:8946   */\n      sload\n        /* \"#utility.yul\":8907:8998   */\n      tag_94\n      jump\t// in\n    tag_204:\n        /* \"#utility.yul\":8901:8905   */\n      dup3\n        /* \"#utility.yul\":8894:8999   */\n      sstore\n        /* \"#utility.yul\":8812:9005   */\n      pop\n        /* \"#utility.yul\":8736:9005   */\n      pop\n      pop\n      pop\n      jump\t// out\n        /* \"#utility.yul\":9011:9084   */\n    tag_99:\n        /* \"#utility.yul\":9056:9059   */\n      0x00\n        /* \"#utility.yul\":9011:9084   */\n      swap1\n      jump\t// out\n        /* \"#utility.yul\":9090:9279   */\n    tag_100:\n        /* \"#utility.yul\":9167:9199   */\n      tag_208\n      tag_99\n      jump\t// in\n    tag_208:\n        /* \"#utility.yul\":9208:9273   */\n      tag_209\n        /* \"#utility.yul\":9266:9272   */\n      dup2\n        /* \"#utility.yul\":9258:9264   */\n      dup5\n        /* \"#utility.yul\":9252:9256   */\n      dup5\n        /* \"#utility.yul\":9208:9273   */\n      tag_98\n      jump\t// in\n    tag_209:\n        /* \"#utility.yul\":9143:9279   */\n      pop\n        /* \"#utility.yul\":9090:9279   */\n      pop\n      pop\n      jump\t// out\n        /* \"#utility.yul\":9285:9471   */\n    tag_101:\n        /* \"#utility.yul\":9345:9465   */\n    tag_211:\n        /* \"#utility.yul\":9362:9365   */\n      dup2\n        /* \"#utility.yul\":9355:9360   */\n      dup2\n        /* \"#utility.yul\":9352:9366   */\n      lt\n        /* \"#utility.yul\":9345:9465   */\n      iszero\n      tag_213\n      jumpi\n        /* \"#utility.yul\":9416:9455   */\n      tag_214\n        /* \"#utility.yul\":9453:9454   */\n      0x00\n        /* \"#utility.yul\":9446:9451   */\n      dup3\n        /* \"#utility.yul\":9416:9455   */\n      tag_100\n      jump\t// in\n    tag_214:\n        /* \"#utility.yul\":9389:9390   */\n      0x01\n        /* \"#utility.yul\":9382:9387   */\n      dup2\n        /* \"#utility.yul\":9378:9391   */\n      add\n        /* \"#utility.yul\":9369:9391   */\n      swap1\n      pop\n        /* \"#utility.yul\":9345:9465   */\n      jump(tag_211)\n    tag_213:\n        /* \"#utility.yul\":9285:9471   */\n      pop\n      pop\n      jump\t// out\n        /* \"#utility.yul\":9477:10020   */\n    tag_102:\n        /* \"#utility.yul\":9578:9580   */\n      0x1f\n        /* \"#utility.yul\":9573:9576   */\n      dup3\n        /* \"#utility.yul\":9570:9581   */\n      gt\n        /* \"#utility.yul\":9567:10013   */\n      iszero\n      tag_216\n      jumpi\n        /* \"#utility.yul\":9612:9650   */\n      tag_217\n        /* \"#utility.yul\":9644:9649   */\n      dup2\n        /* \"#utility.yul\":9612:9650   */\n      tag_91\n      jump\t// in\n    tag_217:\n        /* \"#utility.yul\":9696:9725   */\n      tag_218\n        /* \"#utility.yul\":9714:9724   */\n      dup5\n        /* \"#utility.yul\":9696:9725   */\n      tag_92\n      jump\t// in\n    tag_218:\n        /* \"#utility.yul\":9686:9694   */\n      dup2\n        /* \"#utility.yul\":9682:9726   */\n      add\n        /* \"#utility.yul\":9879:9881   */\n      0x20\n        /* \"#utility.yul\":9867:9877   */\n      dup6\n        /* \"#utility.yul\":9864:9882   */\n      lt\n        /* \"#utility.yul\":9861:9910   */\n      iszero\n      tag_219\n      jumpi\n        /* \"#utility.yul\":9900:9908   */\n      dup2\n        /* \"#utility.yul\":9885:9908   */\n      swap1\n      pop\n        /* \"#utility.yul\":9861:9910   */\n    tag_219:\n        /* \"#utility.yul\":9923:10003   */\n      tag_220\n        /* \"#utility.yul\":9979:10001   */\n      tag_221\n        /* \"#utility.yul\":9997:10000   */\n      dup6\n        /* \"#utility.yul\":9979:10001   */\n      tag_92\n      jump\t// in\n    tag_221:\n        /* \"#utility.yul\":9969:9977   */\n      dup4\n        /* \"#utility.yul\":9965:10002   */\n      add\n        /* \"#utility.yul\":9952:9963   */\n      dup3\n        /* \"#utility.yul\":9923:10003   */\n      tag_101\n      jump\t// in\n    tag_220:\n        /* \"#utility.yul\":9582:10013   */\n      pop\n      pop\n        /* \"#utility.yul\":9567:10013   */\n    tag_216:\n        /* \"#utility.yul\":9477:10020   */\n      pop\n      pop\n      pop\n      jump\t// out\n        /* \"#utility.yul\":10026:10143   */\n    tag_103:\n        /* \"#utility.yul\":10080:10088   */\n      0x00\n        /* \"#utility.yul\":10130:10135   */\n      dup3\n        /* \"#utility.yul\":10124:10128   */\n      dup3\n        /* \"#utility.yul\":10120:10136   */\n      shr\n        /* \"#utility.yul\":10099:10136   */\n      swap1\n      pop\n        /* \"#utility.yul\":10026:10143   */\n      swap3\n      swap2\n      pop\n      pop\n      jump\t// out\n        /* \"#utility.yul\":10149:10318   */\n    tag_104:\n        /* \"#utility.yul\":10193:10199   */\n      0x00\n        /* \"#utility.yul\":10226:10277   */\n      tag_224\n        /* \"#utility.yul\":10274:10275   */\n      0x00\n        /* \"#utility.yul\":10270:10276   */\n      not\n        /* \"#utility.yul\":10262:10267   */\n      dup5\n        /* \"#utility.yul\":10259:10260   */\n      0x08\n        /* \"#utility.yul\":10255:10268   */\n      mul\n        /* \"#utility.yul\":10226:10277   */\n      tag_103\n      jump\t// in\n    tag_224:\n        /* \"#utility.yul\":10222:10278   */\n      not\n        /* \"#utility.yul\":10307:10311   */\n      dup1\n        /* \"#utility.yul\":10301:10305   */\n      dup4\n        /* \"#utility.yul\":10297:10312   */\n      and\n        /* \"#utility.yul\":10287:10312   */\n      swap2\n      pop\n        /* \"#utility.yul\":10200:10318   */\n      pop\n        /* \"#utility.yul\":10149:10318   */\n      swap3\n      swap2\n      pop\n      pop\n      jump\t// out\n        /* \"#utility.yul\":10323:10618   */\n    tag_105:\n        /* \"#utility.yul\":10399:10403   */\n      0x00\n        /* \"#utility.yul\":10545:10574   */\n      tag_226\n        /* \"#utility.yul\":10570:10573   */\n      dup4\n        /* \"#utility.yul\":10564:10568   */\n      dup4\n        /* \"#utility.yul\":10545:10574   */\n      tag_104\n      jump\t// in\n    tag_226:\n        /* \"#utility.yul\":10537:10574   */\n      swap2\n      pop\n        /* \"#utility.yul\":10607:10610   */\n      dup3\n        /* \"#utility.yul\":10604:10605   */\n      0x02\n        /* \"#utility.yul\":10600:10611   */\n      mul\n        /* \"#utility.yul\":10594:10598   */\n      dup3\n        /* \"#utility.yul\":10591:10612   */\n      or\n        /* \"#utility.yul\":10583:10612   */\n      swap1\n      pop\n        /* \"#utility.yul\":10323:10618   */\n      swap3\n      swap2\n      pop\n      pop\n      jump\t// out\n        /* \"#utility.yul\":10623:12018   */\n    tag_65:\n        /* \"#utility.yul\":10740:10777   */\n      tag_228\n        /* \"#utility.yul\":10773:10776   */\n      dup3\n        /* \"#utility.yul\":10740:10777   */\n      tag_67\n      jump\t// in\n    tag_228:\n        /* \"#utility.yul\":10842:10860   */\n      0xffffffffffffffff\n        /* \"#utility.yul\":10834:10840   */\n      dup2\n        /* \"#utility.yul\":10831:10861   */\n      gt\n        /* \"#utility.yul\":10828:10884   */\n      iszero\n      tag_229\n      jumpi\n        /* \"#utility.yul\":10864:10882   */\n      tag_230\n      tag_90\n      jump\t// in\n    tag_230:\n        /* \"#utility.yul\":10828:10884   */\n    tag_229:\n        /* \"#utility.yul\":10908:10946   */\n      tag_231\n        /* \"#utility.yul\":10940:10944   */\n      dup3\n        /* \"#utility.yul\":10934:10945   */\n      sload\n        /* \"#utility.yul\":10908:10946   */\n      tag_37\n      jump\t// in\n    tag_231:\n        /* \"#utility.yul\":10993:11060   */\n      tag_232\n        /* \"#utility.yul\":11053:11059   */\n      dup3\n        /* \"#utility.yul\":11045:11051   */\n      dup3\n        /* \"#utility.yul\":11039:11043   */\n      dup6\n        /* \"#utility.yul\":10993:11060   */\n      tag_102\n      jump\t// in\n    tag_232:\n        /* \"#utility.yul\":11087:11088   */\n      0x00\n        /* \"#utility.yul\":11111:11115   */\n      0x20\n        /* \"#utility.yul\":11098:11115   */\n      swap1\n      pop\n        /* \"#utility.yul\":11143:11145   */\n      0x1f\n        /* \"#utility.yul\":11135:11141   */\n      dup4\n        /* \"#utility.yul\":11132:11146   */\n      gt\n        /* \"#utility.yul\":11160:11161   */\n      0x01\n        /* \"#utility.yul\":11155:11773   */\n      dup2\n      eq\n      tag_234\n      jumpi\n        /* \"#utility.yul\":11817:11818   */\n      0x00\n        /* \"#utility.yul\":11834:11840   */\n      dup5\n        /* \"#utility.yul\":11831:11908   */\n      iszero\n      tag_235\n      jumpi\n        /* \"#utility.yul\":11883:11892   */\n      dup3\n        /* \"#utility.yul\":11878:11881   */\n      dup8\n        /* \"#utility.yul\":11874:11893   */\n      add\n        /* \"#utility.yul\":11868:11894   */\n      mload\n        /* \"#utility.yul\":11859:11894   */\n      swap1\n      pop\n        /* \"#utility.yul\":11831:11908   */\n    tag_235:\n        /* \"#utility.yul\":11934:12001   */\n      tag_236\n        /* \"#utility.yul\":11994:12000   */\n      dup6\n        /* \"#utility.yul\":11987:11992   */\n      dup3\n        /* \"#utility.yul\":11934:12001   */\n      tag_105\n      jump\t// in\n    tag_236:\n        /* \"#utility.yul\":11928:11932   */\n      dup7\n        /* \"#utility.yul\":11921:12002   */\n      sstore\n        /* \"#utility.yul\":11790:12012   */\n      pop\n        /* \"#utility.yul\":11125:12012   */\n      jump(tag_233)\n        /* \"#utility.yul\":11155:11773   */\n    tag_234:\n        /* \"#utility.yul\":11207:11211   */\n      0x1f\n        /* \"#utility.yul\":11203:11212   */\n      not\n        /* \"#utility.yul\":11195:11201   */\n      dup5\n        /* \"#utility.yul\":11191:11213   */\n      and\n        /* \"#utility.yul\":11241:11278   */\n      tag_237\n        /* \"#utility.yul\":11273:11277   */\n      dup7\n        /* \"#utility.yul\":11241:11278   */\n      tag_91\n      jump\t// in\n    tag_237:\n        /* \"#utility.yul\":11300:11301   */\n      0x00\n        /* \"#utility.yul\":11314:11522   */\n    tag_238:\n        /* \"#utility.yul\":11328:11335   */\n      dup3\n        /* \"#utility.yul\":11325:11326   */\n      dup2\n        /* \"#utility.yul\":11322:11336   */\n      lt\n        /* \"#utility.yul\":11314:11522   */\n      iszero\n      tag_240\n      jumpi\n        /* \"#utility.yul\":11407:11416   */\n      dup5\n        /* \"#utility.yul\":11402:11405   */\n      dup10\n        /* \"#utility.yul\":11398:11417   */\n      add\n        /* \"#utility.yul\":11392:11418   */\n      mload\n        /* \"#utility.yul\":11384:11390   */\n      dup3\n        /* \"#utility.yul\":11377:11419   */\n      sstore\n        /* \"#utility.yul\":11458:11459   */\n      0x01\n        /* \"#utility.yul\":11450:11456   */\n      dup3\n        /* \"#utility.yul\":11446:11460   */\n      add\n        /* \"#utility.yul\":11436:11460   */\n      swap2\n      pop\n        /* \"#utility.yul\":11505:11507   */\n      0x20\n        /* \"#utility.yul\":11494:11503   */\n      dup6\n        /* \"#utility.yul\":11490:11508   */\n      add\n        /* \"#utility.yul\":11477:11508   */\n      swap5\n      pop\n        /* \"#utility.yul\":11351:11355   */\n      0x20\n        /* \"#utility.yul\":11348:11349   */\n      dup2\n        /* \"#utility.yul\":11344:11356   */\n      add\n        /* \"#utility.yul\":11339:11356   */\n      swap1\n      pop\n        /* \"#utility.yul\":11314:11522   */\n      jump(tag_238)\n    tag_240:\n        /* \"#utility.yul\":11550:11556   */\n      dup7\n        /* \"#utility.yul\":11541:11548   */\n      dup4\n        /* \"#utility.yul\":11538:11557   */\n      lt\n        /* \"#utility.yul\":11535:11714   */\n      iszero\n      tag_241\n      jumpi\n        /* \"#utility.yul\":11608:11617   */\n      dup5\n        /* \"#utility.yul\":11603:11606   */\n      dup10\n        /* \"#utility.yul\":11599:11618   */\n      add\n        /* \"#utility.yul\":11593:11619   */\n      mload\n        /* \"#utility.yul\":11651:11699   */\n      tag_242\n        /* \"#utility.yul\":11693:11697   */\n      0x1f\n        /* \"#utility.yul\":11685:11691   */\n      dup10\n        /* \"#utility.yul\":11681:11698   */\n      and\n        /* \"#utility.yul\":11670:11679   */\n      dup3\n        /* \"#utility.yul\":11651:11699   */\n      tag_104\n      jump\t// in\n    tag_242:\n        /* \"#utility.yul\":11643:11649   */\n      dup4\n        /* \"#utility.yul\":11636:11700   */\n      sstore\n        /* \"#utility.yul\":11558:11714   */\n      pop\n        /* \"#utility.yul\":11535:11714   */\n    tag_241:\n        /* \"#utility.yul\":11760:11761   */\n      0x01\n        /* \"#utility.yul\":11756:11757   */\n      0x02\n        /* \"#utility.yul\":11748:11754   */\n      dup9\n        /* \"#utility.yul\":11744:11758   */\n      mul\n        /* \"#utility.yul\":11740:11762   */\n      add\n        /* \"#utility.yul\":11734:11738   */\n      dup9\n        /* \"#utility.yul\":11727:11763   */\n      sstore\n        /* \"#utility.yul\":11162:11773   */\n      pop\n      pop\n      pop\n        /* \"#utility.yul\":11125:12012   */\n    tag_233:\n      pop\n        /* \"#utility.yul\":10715:12018   */\n      pop\n      pop\n      pop\n        /* \"#utility.yul\":10623:12018   */\n      pop\n      pop\n      jump\t// out\n    stop\n    data_24620ef47320629cc974ed29f5187fdae814dc0f6c5b1c272380ddff16cacab2 4572726f723a2042616c616e6365206973206c657373207468616e20616d6f756e7420746f206265206275726e65642e\n\n    auxdata: 0xa26469706673582212201d4e0bad19437fbcd8faa14a9186368727a1028af44c6261fe93c2ac7e62822164736f6c63430008160033\n}\n",
				"bytecode": {
					"linkReferences": {},
					"object": "608060405234801561000f575f80fd5b50610e528061001d5f395ff3fe608060405234801561000f575f80fd5b5060043610610060575f3560e01c806311df99951461006457806327e235e31461008457806342966c68146100b4578063a0712d68146100e4578063e1c7392a14610100578063ed94b1a21461010a575b5f80fd5b61006c61013a565b60405161007b93929190610813565b60405180910390f35b61009e600480360381019061009991906108b4565b61025c565b6040516100ab91906108df565b60405180910390f35b6100ce60048036038101906100c99190610922565b610271565b6040516100db919061094d565b60405180910390f35b6100fe60048036038101906100f99190610922565b6105b3565b005b6101086106b8565b005b610124600480360381019061011f919061096d565b610747565b60405161013191906109c5565b60405180910390f35b5f805f01805461014990610a0b565b80601f016020809104026020016040519081016040528092919081815260200182805461017590610a0b565b80156101c05780601f10610197576101008083540402835291602001916101c0565b820191905f5260205f20905b8154815290600101906020018083116101a357829003601f168201915b5050505050908060010180546101d590610a0b565b80601f016020809104026020016040519081016040528092919081815260200182805461020190610a0b565b801561024c5780601f106102235761010080835404028352916020019161024c565b820191905f5260205f20905b81548152906001019060200180831161022f57829003601f168201915b5050505050908060020154905083565b6003602052805f5260405f205f915090505481565b60605f33905060045f8273ffffffffffffffffffffffffffffffffffffffff1673ffffffffffffffffffffffffffffffffffffffff1681526020019081526020015f205f3073ffffffffffffffffffffffffffffffffffffffff1673ffffffffffffffffffffffffffffffffffffffff1681526020019081526020015f205f9054906101000a900460ff1615610574578260035f8373ffffffffffffffffffffffffffffffffffffffff1673ffffffffffffffffffffffffffffffffffffffff1681526020019081526020015f20541061050d578260035f8373ffffffffffffffffffffffffffffffffffffffff1673ffffffffffffffffffffffffffffffffffffffff1681526020019081526020015f205f8282546103919190610a68565b92505081905550825f6002015f8282546103ab9190610a68565b925050819055505f60035f8373ffffffffffffffffffffffffffffffffffffffff1673ffffffffffffffffffffffffffffffffffffffff1681526020019081526020015f2054036104c6575f60045f8373ffffffffffffffffffffffffffffffffffffffff1673ffffffffffffffffffffffffffffffffffffffff1681526020019081526020015f205f3073ffffffffffffffffffffffffffffffffffffffff1673ffffffffffffffffffffffffffffffffffffffff1681526020019081526020015f205f6101000a81548160ff02191690831515021790555060035f8273ffffffffffffffffffffffffffffffffffffffff1673ffffffffffffffffffffffffffffffffffffffff1681526020019081526020015f205f90555b826040516020016104d791906108df565b6040516020818303038152906040526040516020016104f69190610afb565b6040516020818303038152906040529150506105ae565b8260035f8373ffffffffffffffffffffffffffffffffffffffff1673ffffffffffffffffffffffffffffffffffffffff1681526020019081526020015f2054101561057357604051806060016040528060308152602001610ded603091399150506105ae565b5b6040518060400160405280601981526020017f4572726f723a2041646472657373206e6f7420666f756e642e000000000000008152509150505b919050565b5f3390508160035f8373ffffffffffffffffffffffffffffffffffffffff1673ffffffffffffffffffffffffffffffffffffffff1681526020019081526020015f205f8282546106039190610b20565b92505081905550815f6002015f82825461061d9190610b20565b92505081905550600160045f8373ffffffffffffffffffffffffffffffffffffffff1673ffffffffffffffffffffffffffffffffffffffff1681526020019081526020015f205f3073ffffffffffffffffffffffffffffffffffffffff1673ffffffffffffffffffffffffffffffffffffffff1681526020019081526020015f205f6101000a81548160ff0219169083151502179055505050565b6040518060400160405280600f81526020017f626f726a616c546f6b656e4578657200000000000000000000000000000000008152505f800190816106fd9190610d1d565b506040518060400160405280600b81526020017f626f726a616c546f6b45780000000000000000000000000000000000000000008152505f60010190816107449190610d1d565b50565b6004602052815f5260405f20602052805f5260405f205f915091509054906101000a900460ff1681565b5f81519050919050565b5f82825260208201905092915050565b5f5b838110156107a857808201518184015260208101905061078d565b5f8484015250505050565b5f601f19601f8301169050919050565b5f6107cd82610771565b6107d7818561077b565b93506107e781856020860161078b565b6107f0816107b3565b840191505092915050565b5f819050919050565b61080d816107fb565b82525050565b5f6060820190508181035f83015261082b81866107c3565b9050818103602083015261083f81856107c3565b905061084e6040830184610804565b949350505050565b5f80fd5b5f73ffffffffffffffffffffffffffffffffffffffff82169050919050565b5f6108838261085a565b9050919050565b61089381610879565b811461089d575f80fd5b50565b5f813590506108ae8161088a565b92915050565b5f602082840312156108c9576108c8610856565b5b5f6108d6848285016108a0565b91505092915050565b5f6020820190506108f25f830184610804565b92915050565b610901816107fb565b811461090b575f80fd5b50565b5f8135905061091c816108f8565b92915050565b5f6020828403121561093757610936610856565b5b5f6109448482850161090e565b91505092915050565b5f6020820190508181035f83015261096581846107c3565b905092915050565b5f806040838503121561098357610982610856565b5b5f610990858286016108a0565b92505060206109a1858286016108a0565b9150509250929050565b5f8115159050919050565b6109bf816109ab565b82525050565b5f6020820190506109d85f8301846109b6565b92915050565b7f4e487b71000000000000000000000000000000000000000000000000000000005f52602260045260245ffd5b5f6002820490506001821680610a2257607f821691505b602082108103610a3557610a346109de565b5b50919050565b7f4e487b71000000000000000000000000000000000000000000000000000000005f52601160045260245ffd5b5f610a72826107fb565b9150610a7d836107fb565b9250828203905081811115610a9557610a94610a3b565b5b92915050565b7f42616c616e636520776173206275726e65642062792000000000000000000000815250565b5f81905092915050565b5f610ad582610771565b610adf8185610ac1565b9350610aef81856020860161078b565b80840191505092915050565b5f610b0582610a9b565b601682019150610b158284610acb565b915081905092915050565b5f610b2a826107fb565b9150610b35836107fb565b9250828201905080821115610b4d57610b4c610a3b565b5b92915050565b7f4e487b71000000000000000000000000000000000000000000000000000000005f52604160045260245ffd5b5f819050815f5260205f209050919050565b5f6020601f8301049050919050565b5f82821b905092915050565b5f60088302610bdc7fffffffffffffffffffffffffffffffffffffffffffffffffffffffffffffffff82610ba1565b610be68683610ba1565b95508019841693508086168417925050509392505050565b5f819050919050565b5f610c21610c1c610c17846107fb565b610bfe565b6107fb565b9050919050565b5f819050919050565b610c3a83610c07565b610c4e610c4682610c28565b848454610bad565b825550505050565b5f90565b610c62610c56565b610c6d818484610c31565b505050565b5b81811015610c9057610c855f82610c5a565b600181019050610c73565b5050565b601f821115610cd557610ca681610b80565b610caf84610b92565b81016020851015610cbe578190505b610cd2610cca85610b92565b830182610c72565b50505b505050565b5f82821c905092915050565b5f610cf55f1984600802610cda565b1980831691505092915050565b5f610d0d8383610ce6565b9150826002028217905092915050565b610d2682610771565b67ffffffffffffffff811115610d3f57610d3e610b53565b5b610d498254610a0b565b610d54828285610c94565b5f60209050601f831160018114610d85575f8415610d73578287015190505b610d7d8582610d02565b865550610de4565b601f198416610d9386610b80565b5f5b82811015610dba57848901518255600182019150602085019450602081019050610d95565b86831015610dd75784890151610dd3601f891682610ce6565b8355505b6001600288020188555050505b50505050505056fe4572726f723a2042616c616e6365206973206c657373207468616e20616d6f756e7420746f206265206275726e65642ea26469706673582212201d4e0bad19437fbcd8faa14a9186368727a1028af44c6261fe93c2ac7e62822164736f6c63430008160033",
					"opcodes": "PUSH1 0x80 PUSH1 0x40 MSTORE CALLVALUE DUP1 ISZERO PUSH2 0xF JUMPI PUSH0 DUP1 REVERT JUMPDEST POP PUSH2 0xE52 DUP1 PUSH2 0x1D PUSH0 CODECOPY PUSH0 RETURN INVALID PUSH1 0x80 PUSH1 0x40 MSTORE CALLVALUE DUP1 ISZERO PUSH2 0xF JUMPI PUSH0 DUP1 REVERT JUMPDEST POP PUSH1 0x4 CALLDATASIZE LT PUSH2 0x60 JUMPI PUSH0 CALLDATALOAD PUSH1 0xE0 SHR DUP1 PUSH4 0x11DF9995 EQ PUSH2 0x64 JUMPI DUP1 PUSH4 0x27E235E3 EQ PUSH2 0x84 JUMPI DUP1 PUSH4 0x42966C68 EQ PUSH2 0xB4 JUMPI DUP1 PUSH4 0xA0712D68 EQ PUSH2 0xE4 JUMPI DUP1 PUSH4 0xE1C7392A EQ PUSH2 0x100 JUMPI DUP1 PUSH4 0xED94B1A2 EQ PUSH2 0x10A JUMPI JUMPDEST PUSH0 DUP1 REVERT JUMPDEST PUSH2 0x6C PUSH2 0x13A JUMP JUMPDEST PUSH1 0x40 MLOAD PUSH2 0x7B SWAP4 SWAP3 SWAP2 SWAP1 PUSH2 0x813 JUMP JUMPDEST PUSH1 0x40 MLOAD DUP1 SWAP2 SUB SWAP1 RETURN JUMPDEST PUSH2 0x9E PUSH1 0x4 DUP1 CALLDATASIZE SUB DUP2 ADD SWAP1 PUSH2 0x99 SWAP2 SWAP1 PUSH2 0x8B4 JUMP JUMPDEST PUSH2 0x25C JUMP JUMPDEST PUSH1 0x40 MLOAD PUSH2 0xAB SWAP2 SWAP1 PUSH2 0x8DF JUMP JUMPDEST PUSH1 0x40 MLOAD DUP1 SWAP2 SUB SWAP1 RETURN JUMPDEST PUSH2 0xCE PUSH1 0x4 DUP1 CALLDATASIZE SUB DUP2 ADD SWAP1 PUSH2 0xC9 SWAP2 SWAP1 PUSH2 0x922 JUMP JUMPDEST PUSH2 0x271 JUMP JUMPDEST PUSH1 0x40 MLOAD PUSH2 0xDB SWAP2 SWAP1 PUSH2 0x94D JUMP JUMPDEST PUSH1 0x40 MLOAD DUP1 SWAP2 SUB SWAP1 RETURN JUMPDEST PUSH2 0xFE PUSH1 0x4 DUP1 CALLDATASIZE SUB DUP2 ADD SWAP1 PUSH2 0xF9 SWAP2 SWAP1 PUSH2 0x922 JUMP JUMPDEST PUSH2 0x5B3 JUMP JUMPDEST STOP JUMPDEST PUSH2 0x108 PUSH2 0x6B8 JUMP JUMPDEST STOP JUMPDEST PUSH2 0x124 PUSH1 0x4 DUP1 CALLDATASIZE SUB DUP2 ADD SWAP1 PUSH2 0x11F SWAP2 SWAP1 PUSH2 0x96D JUMP JUMPDEST PUSH2 0x747 JUMP JUMPDEST PUSH1 0x40 MLOAD PUSH2 0x131 SWAP2 SWAP1 PUSH2 0x9C5 JUMP JUMPDEST PUSH1 0x40 MLOAD DUP1 SWAP2 SUB SWAP1 RETURN JUMPDEST PUSH0 DUP1 PUSH0 ADD DUP1 SLOAD PUSH2 0x149 SWAP1 PUSH2 0xA0B JUMP JUMPDEST DUP1 PUSH1 0x1F ADD PUSH1 0x20 DUP1 SWAP2 DIV MUL PUSH1 0x20 ADD PUSH1 0x40 MLOAD SWAP1 DUP2 ADD PUSH1 0x40 MSTORE DUP1 SWAP3 SWAP2 SWAP1 DUP2 DUP2 MSTORE PUSH1 0x20 ADD DUP3 DUP1 SLOAD PUSH2 0x175 SWAP1 PUSH2 0xA0B JUMP JUMPDEST DUP1 ISZERO PUSH2 0x1C0 JUMPI DUP1 PUSH1 0x1F LT PUSH2 0x197 JUMPI PUSH2 0x100 DUP1 DUP4 SLOAD DIV MUL DUP4 MSTORE SWAP2 PUSH1 0x20 ADD SWAP2 PUSH2 0x1C0 JUMP JUMPDEST DUP3 ADD SWAP2 SWAP1 PUSH0 MSTORE PUSH1 0x20 PUSH0 KECCAK256 SWAP1 JUMPDEST DUP2 SLOAD DUP2 MSTORE SWAP1 PUSH1 0x1 ADD SWAP1 PUSH1 0x20 ADD DUP1 DUP4 GT PUSH2 0x1A3 JUMPI DUP3 SWAP1 SUB PUSH1 0x1F AND DUP3 ADD SWAP2 JUMPDEST POP POP POP POP POP SWAP1 DUP1 PUSH1 0x1 ADD DUP1 SLOAD PUSH2 0x1D5 SWAP1 PUSH2 0xA0B JUMP JUMPDEST DUP1 PUSH1 0x1F ADD PUSH1 0x20 DUP1 SWAP2 DIV MUL PUSH1 0x20 ADD PUSH1 0x40 MLOAD SWAP1 DUP2 ADD PUSH1 0x40 MSTORE DUP1 SWAP3 SWAP2 SWAP1 DUP2 DUP2 MSTORE PUSH1 0x20 ADD DUP3 DUP1 SLOAD PUSH2 0x201 SWAP1 PUSH2 0xA0B JUMP JUMPDEST DUP1 ISZERO PUSH2 0x24C JUMPI DUP1 PUSH1 0x1F LT PUSH2 0x223 JUMPI PUSH2 0x100 DUP1 DUP4 SLOAD DIV MUL DUP4 MSTORE SWAP2 PUSH1 0x20 ADD SWAP2 PUSH2 0x24C JUMP JUMPDEST DUP3 ADD SWAP2 SWAP1 PUSH0 MSTORE PUSH1 0x20 PUSH0 KECCAK256 SWAP1 JUMPDEST DUP2 SLOAD DUP2 MSTORE SWAP1 PUSH1 0x1 ADD SWAP1 PUSH1 0x20 ADD DUP1 DUP4 GT PUSH2 0x22F JUMPI DUP3 SWAP1 SUB PUSH1 0x1F AND DUP3 ADD SWAP2 JUMPDEST POP POP POP POP POP SWAP1 DUP1 PUSH1 0x2 ADD SLOAD SWAP1 POP DUP4 JUMP JUMPDEST PUSH1 0x3 PUSH1 0x20 MSTORE DUP1 PUSH0 MSTORE PUSH1 0x40 PUSH0 KECCAK256 PUSH0 SWAP2 POP SWAP1 POP SLOAD DUP2 JUMP JUMPDEST PUSH1 0x60 PUSH0 CALLER SWAP1 POP PUSH1 0x4 PUSH0 DUP3 PUSH20 0xFFFFFFFFFFFFFFFFFFFFFFFFFFFFFFFFFFFFFFFF AND PUSH20 0xFFFFFFFFFFFFFFFFFFFFFFFFFFFFFFFFFFFFFFFF AND DUP2 MSTORE PUSH1 0x20 ADD SWAP1 DUP2 MSTORE PUSH1 0x20 ADD PUSH0 KECCAK256 PUSH0 ADDRESS PUSH20 0xFFFFFFFFFFFFFFFFFFFFFFFFFFFFFFFFFFFFFFFF AND PUSH20 0xFFFFFFFFFFFFFFFFFFFFFFFFFFFFFFFFFFFFFFFF AND DUP2 MSTORE PUSH1 0x20 ADD SWAP1 DUP2 MSTORE PUSH1 0x20 ADD PUSH0 KECCAK256 PUSH0 SWAP1 SLOAD SWAP1 PUSH2 0x100 EXP SWAP1 DIV PUSH1 0xFF AND ISZERO PUSH2 0x574 JUMPI DUP3 PUSH1 0x3 PUSH0 DUP4 PUSH20 0xFFFFFFFFFFFFFFFFFFFFFFFFFFFFFFFFFFFFFFFF AND PUSH20 0xFFFFFFFFFFFFFFFFFFFFFFFFFFFFFFFFFFFFFFFF AND DUP2 MSTORE PUSH1 0x20 ADD SWAP1 DUP2 MSTORE PUSH1 0x20 ADD PUSH0 KECCAK256 SLOAD LT PUSH2 0x50D JUMPI DUP3 PUSH1 0x3 PUSH0 DUP4 PUSH20 0xFFFFFFFFFFFFFFFFFFFFFFFFFFFFFFFFFFFFFFFF AND PUSH20 0xFFFFFFFFFFFFFFFFFFFFFFFFFFFFFFFFFFFFFFFF AND DUP2 MSTORE PUSH1 0x20 ADD SWAP1 DUP2 MSTORE PUSH1 0x20 ADD PUSH0 KECCAK256 PUSH0 DUP3 DUP3 SLOAD PUSH2 0x391 SWAP2 SWAP1 PUSH2 0xA68 JUMP JUMPDEST SWAP3 POP POP DUP2 SWAP1 SSTORE POP DUP3 PUSH0 PUSH1 0x2 ADD PUSH0 DUP3 DUP3 SLOAD PUSH2 0x3AB SWAP2 SWAP1 PUSH2 0xA68 JUMP JUMPDEST SWAP3 POP POP DUP2 SWAP1 SSTORE POP PUSH0 PUSH1 0x3 PUSH0 DUP4 PUSH20 0xFFFFFFFFFFFFFFFFFFFFFFFFFFFFFFFFFFFFFFFF AND PUSH20 0xFFFFFFFFFFFFFFFFFFFFFFFFFFFFFFFFFFFFFFFF AND DUP2 MSTORE PUSH1 0x20 ADD SWAP1 DUP2 MSTORE PUSH1 0x20 ADD PUSH0 KECCAK256 SLOAD SUB PUSH2 0x4C6 JUMPI PUSH0 PUSH1 0x4 PUSH0 DUP4 PUSH20 0xFFFFFFFFFFFFFFFFFFFFFFFFFFFFFFFFFFFFFFFF AND PUSH20 0xFFFFFFFFFFFFFFFFFFFFFFFFFFFFFFFFFFFFFFFF AND DUP2 MSTORE PUSH1 0x20 ADD SWAP1 DUP2 MSTORE PUSH1 0x20 ADD PUSH0 KECCAK256 PUSH0 ADDRESS PUSH20 0xFFFFFFFFFFFFFFFFFFFFFFFFFFFFFFFFFFFFFFFF AND PUSH20 0xFFFFFFFFFFFFFFFFFFFFFFFFFFFFFFFFFFFFFFFF AND DUP2 MSTORE PUSH1 0x20 ADD SWAP1 DUP2 MSTORE PUSH1 0x20 ADD PUSH0 KECCAK256 PUSH0 PUSH2 0x100 EXP DUP2 SLOAD DUP2 PUSH1 0xFF MUL NOT AND SWAP1 DUP4 ISZERO ISZERO MUL OR SWAP1 SSTORE POP PUSH1 0x3 PUSH0 DUP3 PUSH20 0xFFFFFFFFFFFFFFFFFFFFFFFFFFFFFFFFFFFFFFFF AND PUSH20 0xFFFFFFFFFFFFFFFFFFFFFFFFFFFFFFFFFFFFFFFF AND DUP2 MSTORE PUSH1 0x20 ADD SWAP1 DUP2 MSTORE PUSH1 0x20 ADD PUSH0 KECCAK256 PUSH0 SWAP1 SSTORE JUMPDEST DUP3 PUSH1 0x40 MLOAD PUSH1 0x20 ADD PUSH2 0x4D7 SWAP2 SWAP1 PUSH2 0x8DF JUMP JUMPDEST PUSH1 0x40 MLOAD PUSH1 0x20 DUP2 DUP4 SUB SUB DUP2 MSTORE SWAP1 PUSH1 0x40 MSTORE PUSH1 0x40 MLOAD PUSH1 0x20 ADD PUSH2 0x4F6 SWAP2 SWAP1 PUSH2 0xAFB JUMP JUMPDEST PUSH1 0x40 MLOAD PUSH1 0x20 DUP2 DUP4 SUB SUB DUP2 MSTORE SWAP1 PUSH1 0x40 MSTORE SWAP2 POP POP PUSH2 0x5AE JUMP JUMPDEST DUP3 PUSH1 0x3 PUSH0 DUP4 PUSH20 0xFFFFFFFFFFFFFFFFFFFFFFFFFFFFFFFFFFFFFFFF AND PUSH20 0xFFFFFFFFFFFFFFFFFFFFFFFFFFFFFFFFFFFFFFFF AND DUP2 MSTORE PUSH1 0x20 ADD SWAP1 DUP2 MSTORE PUSH1 0x20 ADD PUSH0 KECCAK256 SLOAD LT ISZERO PUSH2 0x573 JUMPI PUSH1 0x40 MLOAD DUP1 PUSH1 0x60 ADD PUSH1 0x40 MSTORE DUP1 PUSH1 0x30 DUP2 MSTORE PUSH1 0x20 ADD PUSH2 0xDED PUSH1 0x30 SWAP2 CODECOPY SWAP2 POP POP PUSH2 0x5AE JUMP JUMPDEST JUMPDEST PUSH1 0x40 MLOAD DUP1 PUSH1 0x40 ADD PUSH1 0x40 MSTORE DUP1 PUSH1 0x19 DUP2 MSTORE PUSH1 0x20 ADD PUSH32 0x4572726F723A2041646472657373206E6F7420666F756E642E00000000000000 DUP2 MSTORE POP SWAP2 POP POP JUMPDEST SWAP2 SWAP1 POP JUMP JUMPDEST PUSH0 CALLER SWAP1 POP DUP2 PUSH1 0x3 PUSH0 DUP4 PUSH20 0xFFFFFFFFFFFFFFFFFFFFFFFFFFFFFFFFFFFFFFFF AND PUSH20 0xFFFFFFFFFFFFFFFFFFFFFFFFFFFFFFFFFFFFFFFF AND DUP2 MSTORE PUSH1 0x20 ADD SWAP1 DUP2 MSTORE PUSH1 0x20 ADD PUSH0 KECCAK256 PUSH0 DUP3 DUP3 SLOAD PUSH2 0x603 SWAP2 SWAP1 PUSH2 0xB20 JUMP JUMPDEST SWAP3 POP POP DUP2 SWAP1 SSTORE POP DUP2 PUSH0 PUSH1 0x2 ADD PUSH0 DUP3 DUP3 SLOAD PUSH2 0x61D SWAP2 SWAP1 PUSH2 0xB20 JUMP JUMPDEST SWAP3 POP POP DUP2 SWAP1 SSTORE POP PUSH1 0x1 PUSH1 0x4 PUSH0 DUP4 PUSH20 0xFFFFFFFFFFFFFFFFFFFFFFFFFFFFFFFFFFFFFFFF AND PUSH20 0xFFFFFFFFFFFFFFFFFFFFFFFFFFFFFFFFFFFFFFFF AND DUP2 MSTORE PUSH1 0x20 ADD SWAP1 DUP2 MSTORE PUSH1 0x20 ADD PUSH0 KECCAK256 PUSH0 ADDRESS PUSH20 0xFFFFFFFFFFFFFFFFFFFFFFFFFFFFFFFFFFFFFFFF AND PUSH20 0xFFFFFFFFFFFFFFFFFFFFFFFFFFFFFFFFFFFFFFFF AND DUP2 MSTORE PUSH1 0x20 ADD SWAP1 DUP2 MSTORE PUSH1 0x20 ADD PUSH0 KECCAK256 PUSH0 PUSH2 0x100 EXP DUP2 SLOAD DUP2 PUSH1 0xFF MUL NOT AND SWAP1 DUP4 ISZERO ISZERO MUL OR SWAP1 SSTORE POP POP POP JUMP JUMPDEST PUSH1 0x40 MLOAD DUP1 PUSH1 0x40 ADD PUSH1 0x40 MSTORE DUP1 PUSH1 0xF DUP2 MSTORE PUSH1 0x20 ADD PUSH32 0x626F726A616C546F6B656E457865720000000000000000000000000000000000 DUP2 MSTORE POP PUSH0 DUP1 ADD SWAP1 DUP2 PUSH2 0x6FD SWAP2 SWAP1 PUSH2 0xD1D JUMP JUMPDEST POP PUSH1 0x40 MLOAD DUP1 PUSH1 0x40 ADD PUSH1 0x40 MSTORE DUP1 PUSH1 0xB DUP2 MSTORE PUSH1 0x20 ADD PUSH32 0x626F726A616C546F6B4578000000000000000000000000000000000000000000 DUP2 MSTORE POP PUSH0 PUSH1 0x1 ADD SWAP1 DUP2 PUSH2 0x744 SWAP2 SWAP1 PUSH2 0xD1D JUMP JUMPDEST POP JUMP JUMPDEST PUSH1 0x4 PUSH1 0x20 MSTORE DUP2 PUSH0 MSTORE PUSH1 0x40 PUSH0 KECCAK256 PUSH1 0x20 MSTORE DUP1 PUSH0 MSTORE PUSH1 0x40 PUSH0 KECCAK256 PUSH0 SWAP2 POP SWAP2 POP SWAP1 SLOAD SWAP1 PUSH2 0x100 EXP SWAP1 DIV PUSH1 0xFF AND DUP2 JUMP JUMPDEST PUSH0 DUP2 MLOAD SWAP1 POP SWAP2 SWAP1 POP JUMP JUMPDEST PUSH0 DUP3 DUP3 MSTORE PUSH1 0x20 DUP3 ADD SWAP1 POP SWAP3 SWAP2 POP POP JUMP JUMPDEST PUSH0 JUMPDEST DUP4 DUP2 LT ISZERO PUSH2 0x7A8 JUMPI DUP1 DUP3 ADD MLOAD DUP2 DUP5 ADD MSTORE PUSH1 0x20 DUP2 ADD SWAP1 POP PUSH2 0x78D JUMP JUMPDEST PUSH0 DUP5 DUP5 ADD MSTORE POP POP POP POP JUMP JUMPDEST PUSH0 PUSH1 0x1F NOT PUSH1 0x1F DUP4 ADD AND SWAP1 POP SWAP2 SWAP1 POP JUMP JUMPDEST PUSH0 PUSH2 0x7CD DUP3 PUSH2 0x771 JUMP JUMPDEST PUSH2 0x7D7 DUP2 DUP6 PUSH2 0x77B JUMP JUMPDEST SWAP4 POP PUSH2 0x7E7 DUP2 DUP6 PUSH1 0x20 DUP7 ADD PUSH2 0x78B JUMP JUMPDEST PUSH2 0x7F0 DUP2 PUSH2 0x7B3 JUMP JUMPDEST DUP5 ADD SWAP2 POP POP SWAP3 SWAP2 POP POP JUMP JUMPDEST PUSH0 DUP2 SWAP1 POP SWAP2 SWAP1 POP JUMP JUMPDEST PUSH2 0x80D DUP2 PUSH2 0x7FB JUMP JUMPDEST DUP3 MSTORE POP POP JUMP JUMPDEST PUSH0 PUSH1 0x60 DUP3 ADD SWAP1 POP DUP2 DUP2 SUB PUSH0 DUP4 ADD MSTORE PUSH2 0x82B DUP2 DUP7 PUSH2 0x7C3 JUMP JUMPDEST SWAP1 POP DUP2 DUP2 SUB PUSH1 0x20 DUP4 ADD MSTORE PUSH2 0x83F DUP2 DUP6 PUSH2 0x7C3 JUMP JUMPDEST SWAP1 POP PUSH2 0x84E PUSH1 0x40 DUP4 ADD DUP5 PUSH2 0x804 JUMP JUMPDEST SWAP5 SWAP4 POP POP POP POP JUMP JUMPDEST PUSH0 DUP1 REVERT JUMPDEST PUSH0 PUSH20 0xFFFFFFFFFFFFFFFFFFFFFFFFFFFFFFFFFFFFFFFF DUP3 AND SWAP1 POP SWAP2 SWAP1 POP JUMP JUMPDEST PUSH0 PUSH2 0x883 DUP3 PUSH2 0x85A JUMP JUMPDEST SWAP1 POP SWAP2 SWAP1 POP JUMP JUMPDEST PUSH2 0x893 DUP2 PUSH2 0x879 JUMP JUMPDEST DUP2 EQ PUSH2 0x89D JUMPI PUSH0 DUP1 REVERT JUMPDEST POP JUMP JUMPDEST PUSH0 DUP2 CALLDATALOAD SWAP1 POP PUSH2 0x8AE DUP2 PUSH2 0x88A JUMP JUMPDEST SWAP3 SWAP2 POP POP JUMP JUMPDEST PUSH0 PUSH1 0x20 DUP3 DUP5 SUB SLT ISZERO PUSH2 0x8C9 JUMPI PUSH2 0x8C8 PUSH2 0x856 JUMP JUMPDEST JUMPDEST PUSH0 PUSH2 0x8D6 DUP5 DUP3 DUP6 ADD PUSH2 0x8A0 JUMP JUMPDEST SWAP2 POP POP SWAP3 SWAP2 POP POP JUMP JUMPDEST PUSH0 PUSH1 0x20 DUP3 ADD SWAP1 POP PUSH2 0x8F2 PUSH0 DUP4 ADD DUP5 PUSH2 0x804 JUMP JUMPDEST SWAP3 SWAP2 POP POP JUMP JUMPDEST PUSH2 0x901 DUP2 PUSH2 0x7FB JUMP JUMPDEST DUP2 EQ PUSH2 0x90B JUMPI PUSH0 DUP1 REVERT JUMPDEST POP JUMP JUMPDEST PUSH0 DUP2 CALLDATALOAD SWAP1 POP PUSH2 0x91C DUP2 PUSH2 0x8F8 JUMP JUMPDEST SWAP3 SWAP2 POP POP JUMP JUMPDEST PUSH0 PUSH1 0x20 DUP3 DUP5 SUB SLT ISZERO PUSH2 0x937 JUMPI PUSH2 0x936 PUSH2 0x856 JUMP JUMPDEST JUMPDEST PUSH0 PUSH2 0x944 DUP5 DUP3 DUP6 ADD PUSH2 0x90E JUMP JUMPDEST SWAP2 POP POP SWAP3 SWAP2 POP POP JUMP JUMPDEST PUSH0 PUSH1 0x20 DUP3 ADD SWAP1 POP DUP2 DUP2 SUB PUSH0 DUP4 ADD MSTORE PUSH2 0x965 DUP2 DUP5 PUSH2 0x7C3 JUMP JUMPDEST SWAP1 POP SWAP3 SWAP2 POP POP JUMP JUMPDEST PUSH0 DUP1 PUSH1 0x40 DUP4 DUP6 SUB SLT ISZERO PUSH2 0x983 JUMPI PUSH2 0x982 PUSH2 0x856 JUMP JUMPDEST JUMPDEST PUSH0 PUSH2 0x990 DUP6 DUP3 DUP7 ADD PUSH2 0x8A0 JUMP JUMPDEST SWAP3 POP POP PUSH1 0x20 PUSH2 0x9A1 DUP6 DUP3 DUP7 ADD PUSH2 0x8A0 JUMP JUMPDEST SWAP2 POP POP SWAP3 POP SWAP3 SWAP1 POP JUMP JUMPDEST PUSH0 DUP2 ISZERO ISZERO SWAP1 POP SWAP2 SWAP1 POP JUMP JUMPDEST PUSH2 0x9BF DUP2 PUSH2 0x9AB JUMP JUMPDEST DUP3 MSTORE POP POP JUMP JUMPDEST PUSH0 PUSH1 0x20 DUP3 ADD SWAP1 POP PUSH2 0x9D8 PUSH0 DUP4 ADD DUP5 PUSH2 0x9B6 JUMP JUMPDEST SWAP3 SWAP2 POP POP JUMP JUMPDEST PUSH32 0x4E487B7100000000000000000000000000000000000000000000000000000000 PUSH0 MSTORE PUSH1 0x22 PUSH1 0x4 MSTORE PUSH1 0x24 PUSH0 REVERT JUMPDEST PUSH0 PUSH1 0x2 DUP3 DIV SWAP1 POP PUSH1 0x1 DUP3 AND DUP1 PUSH2 0xA22 JUMPI PUSH1 0x7F DUP3 AND SWAP2 POP JUMPDEST PUSH1 0x20 DUP3 LT DUP2 SUB PUSH2 0xA35 JUMPI PUSH2 0xA34 PUSH2 0x9DE JUMP JUMPDEST JUMPDEST POP SWAP2 SWAP1 POP JUMP JUMPDEST PUSH32 0x4E487B7100000000000000000000000000000000000000000000000000000000 PUSH0 MSTORE PUSH1 0x11 PUSH1 0x4 MSTORE PUSH1 0x24 PUSH0 REVERT JUMPDEST PUSH0 PUSH2 0xA72 DUP3 PUSH2 0x7FB JUMP JUMPDEST SWAP2 POP PUSH2 0xA7D DUP4 PUSH2 0x7FB JUMP JUMPDEST SWAP3 POP DUP3 DUP3 SUB SWAP1 POP DUP2 DUP2 GT ISZERO PUSH2 0xA95 JUMPI PUSH2 0xA94 PUSH2 0xA3B JUMP JUMPDEST JUMPDEST SWAP3 SWAP2 POP POP JUMP JUMPDEST PUSH32 0x42616C616E636520776173206275726E65642062792000000000000000000000 DUP2 MSTORE POP JUMP JUMPDEST PUSH0 DUP2 SWAP1 POP SWAP3 SWAP2 POP POP JUMP JUMPDEST PUSH0 PUSH2 0xAD5 DUP3 PUSH2 0x771 JUMP JUMPDEST PUSH2 0xADF DUP2 DUP6 PUSH2 0xAC1 JUMP JUMPDEST SWAP4 POP PUSH2 0xAEF DUP2 DUP6 PUSH1 0x20 DUP7 ADD PUSH2 0x78B JUMP JUMPDEST DUP1 DUP5 ADD SWAP2 POP POP SWAP3 SWAP2 POP POP JUMP JUMPDEST PUSH0 PUSH2 0xB05 DUP3 PUSH2 0xA9B JUMP JUMPDEST PUSH1 0x16 DUP3 ADD SWAP2 POP PUSH2 0xB15 DUP3 DUP5 PUSH2 0xACB JUMP JUMPDEST SWAP2 POP DUP2 SWAP1 POP SWAP3 SWAP2 POP POP JUMP JUMPDEST PUSH0 PUSH2 0xB2A DUP3 PUSH2 0x7FB JUMP JUMPDEST SWAP2 POP PUSH2 0xB35 DUP4 PUSH2 0x7FB JUMP JUMPDEST SWAP3 POP DUP3 DUP3 ADD SWAP1 POP DUP1 DUP3 GT ISZERO PUSH2 0xB4D JUMPI PUSH2 0xB4C PUSH2 0xA3B JUMP JUMPDEST JUMPDEST SWAP3 SWAP2 POP POP JUMP JUMPDEST PUSH32 0x4E487B7100000000000000000000000000000000000000000000000000000000 PUSH0 MSTORE PUSH1 0x41 PUSH1 0x4 MSTORE PUSH1 0x24 PUSH0 REVERT JUMPDEST PUSH0 DUP2 SWAP1 POP DUP2 PUSH0 MSTORE PUSH1 0x20 PUSH0 KECCAK256 SWAP1 POP SWAP2 SWAP1 POP JUMP JUMPDEST PUSH0 PUSH1 0x20 PUSH1 0x1F DUP4 ADD DIV SWAP1 POP SWAP2 SWAP1 POP JUMP JUMPDEST PUSH0 DUP3 DUP3 SHL SWAP1 POP SWAP3 SWAP2 POP POP JUMP JUMPDEST PUSH0 PUSH1 0x8 DUP4 MUL PUSH2 0xBDC PUSH32 0xFFFFFFFFFFFFFFFFFFFFFFFFFFFFFFFFFFFFFFFFFFFFFFFFFFFFFFFFFFFFFFFF DUP3 PUSH2 0xBA1 JUMP JUMPDEST PUSH2 0xBE6 DUP7 DUP4 PUSH2 0xBA1 JUMP JUMPDEST SWAP6 POP DUP1 NOT DUP5 AND SWAP4 POP DUP1 DUP7 AND DUP5 OR SWAP3 POP POP POP SWAP4 SWAP3 POP POP POP JUMP JUMPDEST PUSH0 DUP2 SWAP1 POP SWAP2 SWAP1 POP JUMP JUMPDEST PUSH0 PUSH2 0xC21 PUSH2 0xC1C PUSH2 0xC17 DUP5 PUSH2 0x7FB JUMP JUMPDEST PUSH2 0xBFE JUMP JUMPDEST PUSH2 0x7FB JUMP JUMPDEST SWAP1 POP SWAP2 SWAP1 POP JUMP JUMPDEST PUSH0 DUP2 SWAP1 POP SWAP2 SWAP1 POP JUMP JUMPDEST PUSH2 0xC3A DUP4 PUSH2 0xC07 JUMP JUMPDEST PUSH2 0xC4E PUSH2 0xC46 DUP3 PUSH2 0xC28 JUMP JUMPDEST DUP5 DUP5 SLOAD PUSH2 0xBAD JUMP JUMPDEST DUP3 SSTORE POP POP POP POP JUMP JUMPDEST PUSH0 SWAP1 JUMP JUMPDEST PUSH2 0xC62 PUSH2 0xC56 JUMP JUMPDEST PUSH2 0xC6D DUP2 DUP5 DUP5 PUSH2 0xC31 JUMP JUMPDEST POP POP POP JUMP JUMPDEST JUMPDEST DUP2 DUP2 LT ISZERO PUSH2 0xC90 JUMPI PUSH2 0xC85 PUSH0 DUP3 PUSH2 0xC5A JUMP JUMPDEST PUSH1 0x1 DUP2 ADD SWAP1 POP PUSH2 0xC73 JUMP JUMPDEST POP POP JUMP JUMPDEST PUSH1 0x1F DUP3 GT ISZERO PUSH2 0xCD5 JUMPI PUSH2 0xCA6 DUP2 PUSH2 0xB80 JUMP JUMPDEST PUSH2 0xCAF DUP5 PUSH2 0xB92 JUMP JUMPDEST DUP2 ADD PUSH1 0x20 DUP6 LT ISZERO PUSH2 0xCBE JUMPI DUP2 SWAP1 POP JUMPDEST PUSH2 0xCD2 PUSH2 0xCCA DUP6 PUSH2 0xB92 JUMP JUMPDEST DUP4 ADD DUP3 PUSH2 0xC72 JUMP JUMPDEST POP POP JUMPDEST POP POP POP JUMP JUMPDEST PUSH0 DUP3 DUP3 SHR SWAP1 POP SWAP3 SWAP2 POP POP JUMP JUMPDEST PUSH0 PUSH2 0xCF5 PUSH0 NOT DUP5 PUSH1 0x8 MUL PUSH2 0xCDA JUMP JUMPDEST NOT DUP1 DUP4 AND SWAP2 POP POP SWAP3 SWAP2 POP POP JUMP JUMPDEST PUSH0 PUSH2 0xD0D DUP4 DUP4 PUSH2 0xCE6 JUMP JUMPDEST SWAP2 POP DUP3 PUSH1 0x2 MUL DUP3 OR SWAP1 POP SWAP3 SWAP2 POP POP JUMP JUMPDEST PUSH2 0xD26 DUP3 PUSH2 0x771 JUMP JUMPDEST PUSH8 0xFFFFFFFFFFFFFFFF DUP2 GT ISZERO PUSH2 0xD3F JUMPI PUSH2 0xD3E PUSH2 0xB53 JUMP JUMPDEST JUMPDEST PUSH2 0xD49 DUP3 SLOAD PUSH2 0xA0B JUMP JUMPDEST PUSH2 0xD54 DUP3 DUP3 DUP6 PUSH2 0xC94 JUMP JUMPDEST PUSH0 PUSH1 0x20 SWAP1 POP PUSH1 0x1F DUP4 GT PUSH1 0x1 DUP2 EQ PUSH2 0xD85 JUMPI PUSH0 DUP5 ISZERO PUSH2 0xD73 JUMPI DUP3 DUP8 ADD MLOAD SWAP1 POP JUMPDEST PUSH2 0xD7D DUP6 DUP3 PUSH2 0xD02 JUMP JUMPDEST DUP7 SSTORE POP PUSH2 0xDE4 JUMP JUMPDEST PUSH1 0x1F NOT DUP5 AND PUSH2 0xD93 DUP7 PUSH2 0xB80 JUMP JUMPDEST PUSH0 JUMPDEST DUP3 DUP2 LT ISZERO PUSH2 0xDBA JUMPI DUP5 DUP10 ADD MLOAD DUP3 SSTORE PUSH1 0x1 DUP3 ADD SWAP2 POP PUSH1 0x20 DUP6 ADD SWAP5 POP PUSH1 0x20 DUP2 ADD SWAP1 POP PUSH2 0xD95 JUMP JUMPDEST DUP7 DUP4 LT ISZERO PUSH2 0xDD7 JUMPI DUP5 DUP10 ADD MLOAD PUSH2 0xDD3 PUSH1 0x1F DUP10 AND DUP3 PUSH2 0xCE6 JUMP JUMPDEST DUP4 SSTORE POP JUMPDEST PUSH1 0x1 PUSH1 0x2 DUP9 MUL ADD DUP9 SSTORE POP POP POP JUMPDEST POP POP POP POP POP POP JUMP INVALID GASLIMIT PUSH19 0x726F723A2042616C616E6365206973206C6573 PUSH20 0x207468616E20616D6F756E7420746F2062652062 PUSH22 0x726E65642EA26469706673582212201D4E0BAD19437F 0xBC 0xD8 STATICCALL LOG1 0x4A SWAP2 DUP7 CALLDATASIZE DUP8 0x27 LOG1 MUL DUP11 DELEGATECALL 0x4C PUSH3 0x61FE93 0xC2 0xAC PUSH31 0x62822164736F6C634300081600330000000000000000000000000000000000 "
				},
				"gasEstimates": {
					"creation": {
						"codeDepositCost": "733200",
						"executionCost": "764",
						"totalCost": "733964"
					},
					"external": {
						"balances(address)": "2802",
						"burn(uint256)": "infinite",
						"coin()": "infinite",
						"init()": "infinite",
						"isPresent(address,address)": "infinite",
						"mint(uint256)": "infinite"
					}
				},
				"methodIdentifiers": {
					"balances(address)": "27e235e3",
					"burn(uint256)": "42966c68",
					"coin()": "11df9995",
					"init()": "e1c7392a",
					"isPresent(address,address)": "ed94b1a2",
					"mint(uint256)": "a0712d68"
				}
			},
			"storageLayout": {
				"storage": [
					{
						"astId": 11,
						"contract": "contracts/Token.sol:MyToken",
						"label": "coin",
						"offset": 0,
						"slot": "0",
						"type": "t_struct(token)8_storage"
					},
					{
						"astId": 15,
						"contract": "contracts/Token.sol:MyToken",
						"label": "balances",
						"offset": 0,
						"slot": "3",
						"type": "t_mapping(t_address,t_uint256)"
					},
					{
						"astId": 21,
						"contract": "contracts/Token.sol:MyToken",
						"label": "isPresent",
						"offset": 0,
						"slot": "4",
						"type": "t_mapping(t_address,t_mapping(t_address,t_bool))"
					}
				],
				"types": {
					"t_address": {
						"encoding": "inplace",
						"label": "address",
						"numberOfBytes": "20"
					},
					"t_bool": {
						"encoding": "inplace",
						"label": "bool",
						"numberOfBytes": "1"
					},
					"t_mapping(t_address,t_bool)": {
						"encoding": "mapping",
						"key": "t_address",
						"label": "mapping(address => bool)",
						"numberOfBytes": "32",
						"value": "t_bool"
					},
					"t_mapping(t_address,t_mapping(t_address,t_bool))": {
						"encoding": "mapping",
						"key": "t_address",
						"label": "mapping(address => mapping(address => bool))",
						"numberOfBytes": "32",
						"value": "t_mapping(t_address,t_bool)"
					},
					"t_mapping(t_address,t_uint256)": {
						"encoding": "mapping",
						"key": "t_address",
						"label": "mapping(address => uint256)",
						"numberOfBytes": "32",
						"value": "t_uint256"
					},
					"t_string_storage": {
						"encoding": "bytes",
						"label": "string",
						"numberOfBytes": "32"
					},
					"t_struct(token)8_storage": {
						"encoding": "inplace",
						"label": "struct MyToken.token",
						"members": [
							{
								"astId": 3,
								"contract": "contracts/Token.sol:MyToken",
								"label": "Name",
								"offset": 0,
								"slot": "0",
								"type": "t_string_storage"
							},
							{
								"astId": 5,
								"contract": "contracts/Token.sol:MyToken",
								"label": "Abbrv",
								"offset": 0,
								"slot": "1",
								"type": "t_string_storage"
							},
							{
								"astId": 7,
								"contract": "contracts/Token.sol:MyToken",
								"label": "TotalSupply",
								"offset": 0,
								"slot": "2",
								"type": "t_uint256"
							}
						],
						"numberOfBytes": "96"
					},
					"t_uint256": {
						"encoding": "inplace",
						"label": "uint256",
						"numberOfBytes": "32"
					}
				}
			},
			"userdoc": {
				"kind": "user",
				"methods": {},
				"version": 1
			}
		}
	}
}